:100000000C94A9020C94C6020C94C6020C94C6026D
:100010000C94C6020C94C6020C94C6020C94C60240
:100020000C94C6020C94C6020C94ED1F0C94BF20D5
:100030000C94111B0C94C6020C94C6020C94C602BC
:100040000C94C6020C94C6020C94C6020C94C60210
:100050000C94C6020C949A1B0C94C6020C94C60213
:100060000C94C6020C94C6020C94C6020C94C602F0
:100070000C94C6020C94C6020C94C6020C94C602E0
:100080000C94C6020C94C6020C94C6020C94C602D0
:100090000C94C6020C94C6020C94C6020C94C602C0
:1000A0000C94C6020C94C6020C94C602EA02F0023A
:1000B000F602FC02020308030E031403A805A805B8
:1000C000D405D40535065306420742075806CE0626
:1000D000DF06DF066213D4136A13341338136E136A
:1000E0003B1371137C134613CA134A1380134E1328
:1000F0008413AE1352138813B81358138E13981326
:100100003F137513421378135D139313A413C41391
:10011000C61330136613DD13E517EB17D917DF1776
:10012000F117F717FD1727214E2146224E214622AF
:100130009A21BD214622142223220102E301011546
:100140000103E3010435307C66697265666F7801EE
:10015000012801043130307C0102E0010117010364
:10016000E0010435307C68747470733A2F2F63613A
:100170006C656E6461722E676F6F676C652E636F5E
:100180006D010128000102E30101150103E30104EF
:1001900035307C66697265666F780101280104312B
:1001A00030307C0102E00101170103E00104353029
:1001B0007C68747470733A2F2F6D61696C2E676F51
:1001C0006F676C652E636F6D010128000102E3010A
:1001D00001150103E3010435307C66697265666FC1
:1001E000780101280104313030307C0102E0010146
:1001F000170103E0010435307C68747470733A2F82
:100200002F6769746875622E636F6D2F74686577E8
:1002100069636B657374010128000102E301011534
:100220000103E3010435307C667573696F6E01016B
:1002300028000102E30101150103E3010435307CCC
:10024000636F6465010128000102E30101150103E8
:10025000E3010435307C73706F746966790101289D
:10026000000102E30101150103E3010435307C6E56
:100270006F746173010128000102E301011501039C
:10028000E3010435307C63616C6301012800005791
:100290005400550056005F006000610057005C008C
:1002A0005D005E00000059005A005B0058006200CB
:1002B00000006300000001000100010001004A008D
:1002C00052004B000100500046004F0000004D005E
:1002D00051004E000100490000004C0000000100E8
:1002E0000100010001000000A90000000000AC00B6
:1002F000AE00AB0000000000AA0000000000A80053
:10030000000000000000010001005300007C00001C
:1003100001006A0000000200030004000000050064
:1003200006000700000000000000000000000000C0
:100330000000000000002A2B280000000000000040
:1003400000000000000000000029000000002C1E3A
:100350003420212224342627252E362D3738271EF7
:100360001F202122232425263333362E37381F041D
:1003700005060708090A0B0C0D0E0F1011121314B5
:1003800015161718191A1B1C1D2F3130232D350473
:1003900005060708090A0B0C0D0E0F101112131495
:1003A00015161718191A1B1C1D2F3130354C00005B
:1003B000000000000000000000000000000000003D
:1003C000000000000000000000000000000000002D
:1003D00000007E0F00D4FFFFFFC7000000781A0363
:1003E0004200610073006900630020004E00750048
:1003F0006D0070006100640000000A0341006C00A1
:100400006500780000000403090409023B000201B2
:1004100000A0FA09040000010301010009211101F3
:1004200000012244000705810308000109040100BE
:10043000010300000009211101000122B600070597
:10044000820320000112010002000000084E420158
:100450000000010102000105010902A10185020954
:1004600001A1000509190129081500250195087544
:100470000181020501093009311581257F95027539
:1004800008810609381581257F95017508810605C3
:100490000C0A38021581257F950175088106C0C0B8
:1004A00005010980A101850319012AB7001501265C
:1004B000B700950175108100C0050C0901A10185E7
:1004C0000419012AA002150126A0029501751081C8
:1004D00000C005010906A1018506050719E029E705
:1004E000150025019508750181020507190029EFFE
:1004F0001500250195F075018102050819012905EE
:10050000950575019102950175039101C0050109D9
:1005100006A101050719E029E715002501950875D1
:100520000181029501750881010507190029FF1550
:100530000026FF00950675088100050819012905A8
:10054000150025019505750191029501750391012D
:10055000C00011241FBECFEFDAE0DEBFCDBF11E037
:10056000A0E0B1E0E6E8F6E402C005900D92A23A00
:10057000B107D9F722E0A2EAB1E001C01D92A73A83
:10058000B207E1F70E94D0120C9441230C940000B2
:10059000FC018281823059F018F4813031F00895E5
:1005A000833039F0843039F0089580E005C081E06F
:1005B00003C082E001C083E00E94300808958830C3
:1005C0009105C8F5DB01FC01EA5AFF4F15969C9195
:1005D0000C948822992379F160E088E792E029C0A1
:1005E000992349F160E081E692E023C0992319F153
:1005F00060E088E492E01DC09923E9F060E082E3C6
:1006000092E017C09923B9F060E08AE192E011C04E
:10061000992389F060E08CEC91E00BC0992359F0AC
:1006200060E085E891E005C0992329F060E08AE365
:1006300091E00E94F01681E008958430C0F46530A6
:10064000B0F44430A0F4E62FF0E095E0899FE00D8F
:10065000F11D1124EE0FFF1FEE0FFF1FE40FF11D20
:10066000EE0FFF1FE257FD4F85919491089581E0B1
:1006700090E008950E941D03089581E0089581E0AF
:1006800008950E943F0308950E94410308950E9427
:10069000DF02089508950E944A030895A6E0B0E09D
:1006A000E4E5F3E00C949D2249835A839E833091C4
:1006B000A90189819A81311115C03E81332359F0F6
:1006C000222349F00E940009182F682F89819A81FE
:1006D0000E94DC0803C00E94EE08182F69817A810D
:1006E000812F04C00E94000969817A810E944B1009
:1006F0002696E3E00C94B922FC01262F408151811B
:1007000062817381848195810E944E030895CF9305
:10071000DF93EC0161E00E947C03BE010E94440370
:10072000DF91CF910895CF93DF93EC0160E00E94B9
:100730007C03BE010E944B03DF91CF91089581E0BD
:1007400008950E949F030895CF93C82F0E94B30776
:100750008C2F0E94A1032FEF84E39CE02150804066
:100760009040E1F700C00000CF91089581E00E9421
:10077000A4030E94C01B089580E00E94A4030E946D
:10078000D11B08950F931F93CF93DF938C0161E0EA
:100790000E947C03EC01B8010E945318882329F0C1
:1007A00061E0C8010E947C03EC01B801CE010E9407
:1007B0004703882309F449C0B801CE010E947E187E
:1007C000882309F442C0B801CE010E94CD178823C6
:1007D000E1F1B801CE010E940C138823B1F1B801F8
:1007E000CE010E94E212882381F1F80185818823DD
:1007F00041F1C3308CE7D807D1F040F4C115FCE7D4
:10080000DF0791F0C130DC47A1F01BC0CB35ECE72E
:10081000DE07A9F0CC35FCE7DF0771F0CA35DC470D
:1008200081F40E949F0D0DC00E94B6030EC00E946D
:10083000A70D0E94BC0309C00E94950D02C00E9432
:10084000A30DC8010E943D0301C080E0DF91CF915C
:100850001F910F9108950E94EA1A0E945204089570
:100860000E9456040E94F31A0895089581E00895A5
:100870000895CF93DF93D82F0E943604C82F882382
:1008800019F08D2F0E9438048C2FDF91CF9108959D
:100890000895CF93C82F0E9435048C2F0E943904ED
:1008A000CF91089580E00E94490408950E942B1979
:1008B0000E9449040895CF930E942B19C82F80915C
:1008C000A401C81779F0C093A4010E947F1B609314
:1008D000A5017093A6018093A7019093A8018C2F86
:1008E0000E944904CF910895ADE0B0E0EAE7F4E05A
:1008F0000C949E22488759876A877B878C879D87BF
:1009000091110E949E0CCE01019627E0FC011192EC
:100910002A95E9F726E0FE013896DC0101900D9258
:100920002A95E1F72D8121110AC029813A814B8155
:100930005C816D817E818F810E94E50B04C00E94E5
:1009400087038111F2CF2D96E2E00C94BA22FC01CC
:100950002481213021F4808191810E9432090895FF
:10096000662319F00E947C1402C00E94ED140E94BC
:1009700064150895CF93882309F444C0C82F8CEFE1
:100980008C0F813A70F48C2F0E94C719882329F0AC
:100990008C2F0E94671A0E94280D8C2F0E94501ADB
:1009A0000CC080E28C0F883058F4C77081E001C021
:1009B000880FCA95EAF70E947E0C0E94280D22C07B
:1009C000EBE5EC0FE33040F4F0E0E35AFE4F8081BA
:1009D00090E00E945F1916C0E8E5EC0FEB3150F48F
:1009E000F0E0EE0FFF1FE95DFE4F808191810E94D4
:1009F000841908C083E38C0F833120F461E08C2FCD
:100A00000E94B004CF910895882381F19CEF980F44
:100A1000913A18F40E94671A0DC090E2980F98302E
:100A200060F4877091E001C0990F8A95EAF7892FE9
:100A30000E94840C0E94280D08959BE5980F933026
:100A400028F480E090E00E945F19089598E5980FDF
:100A50009B3128F480E090E00E948419089593E38C
:100A6000980F933118F460E00E94B00408951F932A
:100A7000CF93DF93182FEB010E94BA04209741F027
:100A80008FE99FE00197F1F700C000002197F6CFB2
:100A9000812F0E940405DF91CF911F910895893322
:100AA00019F060E070E002C060E570E00E94370578
:100AB0000895882321F00E947E0C0E94280D08953D
:100AC000882321F00E94840C0E94280D0895A0E044
:100AD000B0E0EDE6F5E00C9498227C01162FC72FCC
:100AE000FC01D581068102950F700E94740C882349
:100AF000F9F0DD23E9F08C2F807F803461F080E213
:100B0000810F8830A8F08C2F807E803221F4123043
:100B100078F0002369F080918B0282FF09C082E0A7
:100B20000E94690D0E94740C91E0D82ED92601C054
:100B3000D12CCC2EC2948FE0C8228C2D90E08C302A
:100B4000910508F09FC1FC01E25AFF4F0C948822E6
:100B50008C2F807FCF70882311F0C295C07FDD235A
:100B600099F0CC2309F47AC180E2810F883010F02B
:100B7000111104C08C2F0E947E0C03C08C2F0E9488
:100B8000910C0E94280D6AC1812F0E940405CC237C
:100B900009F478C180E2810F883038F1112329F1FE
:100BA0008C2F0E94970C24C08C2F807FCF708032B6
:100BB00011F0C295C07F112319F0113099F13CC09A
:100BC00080918B0282FD17C0DD2349F0CC2329F0F0
:100BD0008C2F0E947E0C0E94280D80E040C180E096
:100BE0000E940405CC2309F44DC18C2F0E94840C73
:100BF0000E94280D47C1DD2349F0002309F101308F
:100C000009F040C18C2F0E94AB0C3CC101113AC1CC
:100C10008C2F0E9460058C2F0E94B70C8C2F0E9495
:100C20003C0D30C1DD2321F0063008F02BC108C097
:100C3000053008F027C115C0DD2331F001110EC1C8
:100C40008C2F0E9459051EC1002359F0193309F059
:100C500016C1FFEF27EE83E0F15020408040E1F71E
:100C60000CC18C2F0E9460050DC18C2F8695869536
:100C7000837019F0813061F005C1DD2321F0812FEF
:100C80009C2F937002C080E090E00E945F1902C127
:100C9000DD2321F0812F9C2F937002C080E090E033
:100CA0000E948419F7C06D2F812F0E94B004F2C0FA
:100CB0008C2F8370B1F5D111E9C0412F4295469533
:100CC0004770440F440F812F8F7090E09C01042ED9
:100CD00002C0220F331F0A94E2F714FF0AC08FE00C
:100CE00090E002C0880F991F4A95E2F78095909591
:100CF00002C080E090E0C695C695C370822B932B0E
:100D0000C23049F058F4C13019F00E940F08BEC03B
:100D10000E940608BBC00E941808B8C00E940308C1
:100D2000B5C0DD2319F08C2F817001C08695882312
:100D300009F4ACC0412F429546954770440F440FCB
:100D4000812F8F7090E09C01042E02C0220F331F70
:100D50000A94E2F714FF0AC08FE090E002C0880F07
:100D6000991F4A95E2F78095909502C080E090E047
:100D7000C695C695C370822B932BC23049F058F4A8
:100D8000C13019F00E94770881C00E946E087EC0B1
:100D90000E9480087BC00E94240878C0CF70DD23A9
:100DA00039F08C2F0E943C08812F0E9459056EC09B
:100DB000812F0E9460058C2F0E944C0867C0123F53
:100DC00021F128F4103F41F0113FC1F043C0133F1F
:100DD00019F1143F79F03EC0DD2341F0053008F0F1
:100DE00051C08C2F8F710E945E084CC0063008F0F5
:100DF00049C0F7CF80918B0282FD18C0DD2339F006
:100E00008C2F8F710E943C083DC0DD23C9F38C2FCD
:100E10008F710E944C0836C0DD2329F08C2F8F7112
:100E20000E9430082FC00E942B082CC0DD2349F0FF
:100E3000CF718C2F0E943C0863E08C2F0E944B0DD9
:100E400021C081E00E94690D0230E0F082E00E9442
:100E5000690D18C0DD2331F0002391F2812F0E942B
:100E6000BA0410C0002399F2193349F49FEFE7EE5A
:100E7000F3E09150E040F040E1F700C00000812F26
:100E80000E94040588EF8C0D843020F40E942B19F9
:100E90000E944904DD2089F00E94700C80FD0DC085
:100EA000F70115820E946A0C0E943C08C7010E944B
:100EB0007A070E946A0C0E944C08CDB7DEB7E8E0C2
:100EC0000C94B4220F931F93CF93DF93EC016881AE
:100ED00079818D810E943D098C010E9489080E94C0
:100EE000F407B801CE010E946705DF91CF911F91F1
:100EF0000F910895CF93DF93FC0124812223D1F039
:100F0000EC010E94C20381110FC00E94740C88235F
:100F100089F08D81882371F080918B0282FF0AC055
:100F200082E00E94690D06C0CE010E946207CE01D8
:100F30000E949303DF91CF91089580E090E00E949A
:100F40005F1980E090E00E9484190E949E0C0E942C
:100F5000280D0E9483150E94641508950E947E1A30
:100F60000E949D0708950E948B0C0E94AE07089571
:100F700092959F70963079F010F4925001C09A507B
:100F8000923068F4803F69F018F4883E40F409C05C
:100F9000843F29F406C0883E20F0813F11F080E0B4
:100FA000089581E00895FC012481222339F0808195
:100FB00091810E9432090E94B807089580E0089547
:100FC000A6E0B0E0E6EEF7E00C949E222696E2E082
:100FD0000C94BA22A7E0B0E0E0EFF7E00C949E2278
:100FE0002796E2E00C94BA22089508950E94F5072E
:100FF00008950E94F60708950E94F9079093B90199
:101000008093B80108950E94FC0708952091B801CB
:101010003091B901822B932B0E94FC0708952091F7
:10102000B8013091B901822393230E94FC070895EF
:101030002091B8013091B901822793270E94FC07C3
:1010400008950E94F50708950E9421089093B70122
:101050008093B601089580E090E00E9424080895EE
:1010600021E030E0A90102C0440F551F8A95E2F744
:10107000CA010E942408089521E030E002C0220F36
:10108000331F8A95E2F78091B6019091B701822BC8
:10109000932B0E942408089521E030E002C0220F23
:1010A000331F8A95E2F7209530958091B601909193
:1010B000B701822393230E942408089521E030E0A1
:1010C00002C0220F331F8A95E2F78091B6019091FA
:1010D000B701822793270E94240808952091B60122
:1010E0003091B701822B932B0E9424080895209100
:1010F000B6013091B701822393230E9424080895FA
:101100002091B6013091B701822793270E942408CD
:1011100008950895962F9770A1E001C0AA0F9A959F
:10112000EAF793E0769567959A95E1F7660F771F52
:10113000660F771FFA01E60FF71F40E050E0682FB7
:1011400070E090819B01042E02C0369527950A9489
:10115000E2F72170219529272A23292721934F5F20
:101160005F4F4430510569F70895FB01782F777080
:1011700023E0969587952A95E1F7880F991F880FA8
:10118000991FE80FF91F40E050E080E0219130E026
:10119000072E02C0369527950A94E2F7217033276F
:1011A000042E01C0220F0A94EAF7822B4F5F5F4F93
:1011B0004430510559F70895282F953070F4843044
:1011C00060F4862F622F70E024E0929F600D711D05
:1011D00011244AEA51E00E948A080895953070F47B
:1011E000843060F4292F90E06AEA71E034E0239FB4
:1011F000800D911D11240E94B508089580E0089586
:10120000A0E0B0E0E6E0F9E00C9497227C010091C8
:10121000B6011091B7018091B8019091B901082BE6
:10122000192BCFE0D0E0CC24C394D12CC6010C2ED6
:1012300002C0880F991F0A94E2F780239123892B1B
:1012400021F4219798F7B12C07C0BC2EB7018C2F41
:101250000E9457100197A9F38B2DCDB7DEB7E9E0B7
:101260000C94B322CF93DF93EC010E940009BE01DE
:101270000E945710DF91CF9108951F93CF93DF9372
:10128000EB019091A901992321F0CB010E94320931
:1012900013C0882349F0CB010E940009182F682F42
:1012A000CE010E94DC0804C0CB010E94EE08182F7A
:1012B000BE01812F0E945710DF91CF911F91089599
:1012C0001F93CF93DF93C091BA0117E08091BB01C8
:1012D000C817A1F0D0E01C9FF0011D9FF00D112454
:1012E000E454FE4F208131814281538164817581B4
:1012F00086810E94EA072196C770E8CFDF91CF91DF
:101300001F9108952091F4013091F5014091F6016B
:101310005091F7016091F8017091F9018091FA0103
:101320000E94EA0708952091BA019091BB0157E00D
:101330002917A9F030E0529FF001539FF00D1124BE
:10134000E454FE4F7181761306C07081781303C098
:101350007581741306C02F5F3F4F2770E9CF80E07F
:10136000089581E008958FEA90E00895A0E0B0E04C
:10137000ECEBF9E00C9499228091FA0182958F7040
:1013800009F052C08091F901882309F44DC0C09141
:10139000BA0187E0D82E8091BB01C81709F444C078
:1013A000D0E0DC9E8001DD9E100D1124F801E45494
:1013B000FE4F84818823A9F191818091F5019813D2
:1013C00030C090818091F40198132BC085818111E8
:1013D00028C0E280F3808091F6019091F701E81A2D
:1013E000F90A60E084EF91E00E947C0364EF71E011
:1013F0000E94B309E816F906A0F48091FA018F70F3
:1014000080618093FA01F801EE53FE4F80818F7066
:101410008061808384EF91E00E947A070E946009D6
:1014200003C02196C770B7CFCDB7DEB7E7E00C9405
:10143000B522A4E1B0E0EFE1FAE00C9491228C0136
:1014400086E0F801DE011F9601900D928A95E1F782
:10145000F8017480E58084EFA82E81E0B82E809199
:10146000F80181111CC0772009F44EC0EE2009F468
:1014700048C0C8010E94D307F82E882309F441C050
:1014800087E0F801A4EFB1E001900D928A95E1F7B1
:1014900084EF91E00E94A7040E94B6098DC1F80173
:1014A00050806180C280D380F090F9018091F60174
:1014B0009091F7014601881A990A60E084EF91E063
:1014C000FF2009F407C10E947C0364EF71E00E94D1
:1014D000B3098816990608F0A6C07720A9F0809174
:1014E000FA01382F307F2091F501F80191813323E3
:1014F00071F0291709F465C0C8010E94D307811152
:1015000069C0C8010E947A07FF24F39459C12913C6
:1015100016C02091F4019081291311C0E1100FC071
:101520008F7080618093FA010E94820984EF91E0BC
:101530000E947A078091FA01F801868340C1E11088
:101540003AC040E0662D852D0E94930940E0662D4B
:10155000852D0E949309E82E811131C15F86688A2A
:101560008F8598890E943209292F22952F70243067
:1015700020F49F70223028F009C02A50223080F0D9
:1015800014C0992349F0811107C013C0992321F099
:10159000F8019681907F69F0805E883030F409C050
:1015A000803F38F0815F833020F0C8010E947A07C5
:1015B000EF2CFE2C05C18091FA0181608093FA0125
:1015C000FEC02091F401F8019081291395CFE1101C
:1015D00093CFBFC0EE2009F494CF2091FA01822F5F
:1015E00082958F7090E002978CF08091F401909139
:1015F000F50199878887DB86CA868091F8018C87F8
:101600001D862E87CE0108960E947A0787E0F80192
:10161000A4EFB1E001900D928A95E1F70E94B6091E
:101620000E94820971CF8091FA01982F907FB1F4C6
:101630006C2DDA8AC98A452D562D7A89872D9E2DE3
:101640000E94E00784EF91E00E947A0787E0F501AD
:1016500011928A95E9F70E948209B1C0772009F4B6
:1016600053CF2091F501F8019181291311C02091E8
:10167000F401908129130CC0E1100AC08683C801CF
:101680000E947A0787E0F50111928A95E9F798C0E0
:10169000C8010E94D307882309F433CFEE2009F450
:1016A00030CF2091FA01822F82958F7090E00297BF
:1016B0000CF4ACCF8091F4019091F5019A83898369
:1016C000DC82CB828091F8018D831E822F83CE0134
:1016D00001969ACF0E947C0364EF71E00E94B309E7
:1016E0008816990608F059C0772009F40DCFFE2C12
:1016F000EE2009F406CF9091F501F801818198134D
:101700003EC09091F4018081981339C08091F60118
:101710009091F701C81AD90AFFEACF16D10430F523
:101720008091FA0180FD22C082958F70482F50E091
:1017300041155105D9F02091FA01F80126834F3067
:10174000510541F08F5F982F9295907F822F8F7077
:10175000892B8683C8010E947A0787E0F801A4EFED
:10176000B1E001900D928A95E1F726C087E0F8017B
:10177000A4EFB1E001900D928A95E1F721C0C80174
:101780000E94D307811142CF8091FA01816080933A
:10179000FA01C8010E947A0713C06C2DDA8AC98A3F
:1017A000452D562D7A89872D9E2D0E94E00787E0D2
:1017B000F50111928A95E9F70E94820901C0F12C86
:1017C0008F2D6496EFE00C94AD22AEE0B0E0EBEE2E
:1017D000FBE00C949D22288739874A875B876C87BA
:1017E0007D878E87CE0108960E94190A882361F0B2
:1017F0006C856623A9F1288539854A855B857D85B9
:101800008E850E94EA072CC087E0FE013896DE0133
:10181000119601900D928A95E1F76C85662301F18E
:101820002091BB0130E0C901019687709927409152
:10183000BA0150E084179507E1F16D8397E0929F1C
:10184000D001939FB00D1124A454BE4FFE013196D8
:1018500001900D929A95E1F78093BB010E94600977
:1018600017E08091BA019091BB01891779F1189F17
:10187000C001112484549E4F0E94190A882331F11B
:10188000E091BA011E9FF0011124E454FE4F208123
:101890003181428153816481758186810E94EA078A
:1018A0008091BA0190E00196877099278093BA01E0
:1018B000D8CF0E94B3071092BB011092BA01E4EF97
:1018C000F1E087E0DF011D928A95E9F72E96E3E0CB
:1018D0000C94B92280912302869586958695089569
:1018E000809123028770089590912302977081E080
:1018F00009F480E0089580914F02089590914F027D
:10190000892B80934F020895809590914F028923EF
:1019100080934F02089510924F02089580914E02D5
:10192000089590914E02892B80934E0208958095E0
:1019300090914E02892380934E02089510924E0298
:10194000089580912502089508950E94A40C089599
:101950000E94A50C089590912502292F2823821713
:1019600029F0982B909325020E94A80C089590913D
:101970002502292F282331F0809589238093250281
:101980000E94A80C089580912502882329F01092C6
:10199000250280E00E94A80C0895CF93C0914F02C9
:1019A00080914E02C82B80912502882331F0C82BEC
:1019B0000E94A91981110E94C30C8C2FCF91089508
:1019C000CF93DF93C0911201D09113010E94CD0CEF
:1019D0008883C0911201D091130148E050E06BE17F
:1019E00072E0CE010E94D922892B59F088E0FE01D5
:1019F000ABE1B2E001900D928A95E1F7CE010E9431
:101A00003819DF91CF910895CF93DF93C0911001E2
:101A1000D09111010E94CD0C8983C0911001D09109
:101A2000110140E250E06BEF71E0CE010E94D9223B
:101A3000892B59F080E2FE01ABEFB1E001900D92ED
:101A40008A95E1F7CE010E944319DF91CF91089565
:101A500080912601882339F080918A0287FF03C094
:101A60000E94040D08950E94E00C08950E94A40CA9
:101A700008950E94360D089590912402292F28235D
:101A800031F080958923809324020E94390D0895B6
:101A90000E94A40C089590918B0292FF11C098E0CF
:101AA000899F90011124262B209323020E943C0839
:101AB000809123028695869586950E94480D08950B
:101AC0000E943C0808951092230280E00E94480D75
:101AD0000895909123028095892380932302282FD3
:101AE000277069F4981759F090918B0292FF07C004
:101AF0008695869586950E944C080E94630D0895F0
:101B000090918B0292FB222720F9281769F080FB25
:101B100092F990938B0280918A0290918B020E949D
:101B2000C80D82E00E94690D089580918B0282FBAE
:101B3000882780F991E089270E94800D089581E02F
:101B40000E94800D089580E00E94800D08956FEF3F
:101B50007FEF80E090E00E942B23089580E090E0EA
:101B60000E94F72221E0863E9E4F09F020E0822F5E
:101B7000089582E090E00E94EF22089583E090E0D3
:101B80000E94EF22089584E090E00E94F7220895D9
:101B9000BC0184E090E00E942B230895AB01BC01BE
:101BA0008FE090E00E941F230895AB01BC0183E108
:101BB00090E00E941F23089560E070E0CB010E9436
:101BC000D50D089560E070E0CB010E94CE0D0E941B
:101BD000DC0D0895A8E0B0E0E0EFFDE00C949E225B
:101BE00066EE7EEF80E090E00E942B2360E082E0D2
:101BF00090E00E940D2381E090E09093B9018093E2
:101C0000B80161E083E090E00E940D2360E074E1A0
:101C100084E090E00E942B2360E086E090E00E9448
:101C20000D236FEF87E090E00E940D2340E050E02D
:101C3000BA0188E090E00E941F2360E084E290E017
:101C40000E940D2360E087E190E00E940D2360E098
:101C50008CE090E00E940D2360E08DE090E00E9417
:101C60000D2319821A821B821C821D821E821F82F2
:101C7000188648E050E068E170E0CE0101960E94CD
:101C8000FD2240E050E0BA0180E290E00E941F2374
:101C90000E94E20D2896E2E00C94BA220E94EA0D1E
:101CA0000895682F8EE090E00E940D230895A6E02D
:101CB000B0E0EDE5FEE00C949C220E94731B8C01C9
:101CC00080915002909151020817190781F01982F2
:101CD0001A820E94731B682F49815A81792F80E0F4
:101CE00090E00E94740410935102009350022696D3
:101CF000E4E00C94B8220E947F1B60935B02709317
:101D00005C0280935D0290935E0260935702709331
:101D100058028093590290935A02089581E00895E1
:101D200081E008950E94900E089508950E94950EF6
:101D300008950E94950E08950E94990E08950E949C
:101D4000950E08950E949F0E08950E94950E089585
:101D500087E491E10E94DD120E94A50E0E94A20E6E
:101D600008950E94960E0E94950E08950E94661195
:101D70000E94480408950E946A1B0E9436120E9425
:101D8000B60E0E949C0E0895A6E0B0E0EAECFEE0DC
:101D90000C9495220E948E0E811103C00E94570E52
:101DA00053C00E944C1282E5E82E82E0F82E6701B3
:101DB00000E0F60111916F01802F0E9484118127AC
:101DC0000F5F053019F08823A1F302C0882331F397
:101DD00080915F0281FD0E948A110E94920EA82EBE
:101DE00010E099249394812F0E948411B82EF7015A
:101DF000C080C82609F100E0DD24D3948C2D8D210C
:101E0000A9F0AA2099F009831A830E94731B9C836E
:101E10008B839D8291E08B2D8D2109F490E0498187
:101E20005A816B817C818D810E9474040F5FDD0C6F
:101E3000043021F7F701B0821F5FFFEFEF1AFF0AAE
:101E4000153089F60E947B0E0E94EA180E94A515A3
:101E50000E945B042696EBE00C94B1221F93CF9373
:101E6000DF930E945C10EC01C11580E5D807E8F50E
:101E7000C11590E4D90708F0A8C0C03ED10530F5DF
:101E8000CD3CD10508F094C0C83AD10578F4C53AE4
:101E9000D10508F083C0C130D10509F47CC008F435
:101EA000F2C0C430D10508F0F1C0EDC0C33CD1058B
:101EB00008F0E9C0C85AD0E0CC0FDD1FC05ADE4F91
:101EC0000990D881C02DCE019464E1C0C11580E293
:101ED000D80708F0CBC0C11591E0D90708F06BC056
:101EE000C83ED10508F4D2C0CEC0C03682E5D807BE
:101EF00028F5C03492E5D90708F079C0C03282E5F0
:101F0000D80708F06CC0C11592E5D90708F481C064
:101F10004C2F4695469580E2489FA0011124C3703E
:101F200021E030E0C90102C0880F991FCA95E2F78D
:101F3000EA01C82BD92BCE019D68A9C0C03A82E521
:101F4000D807B8F48C2F8F71C03892E5D90708F004
:101F50007BC08695869590E2899F90011124C3707D
:101F600081E090E002C0880F991FCA95E2F79A6855
:101F700068C0C03C82E5D80708F46DC0C03E92E559
:101F8000D90708F080C0CF71DD27DC2FCC27CE0128
:101F9000806F906A7CC081E090E079C0C55AD0E043
:101FA000CA56DE4F8881C82FD0E0CE0190646FC042
:101FB000CE0190656CC08D2F0E94F810182FCE01B5
:101FC00099270E945C101F715CC0CE0199270E9466
:101FD0005C10CC27DF70D06A8C2B9D2B58C0CF7142
:101FE000D0E0DC2FCC27CE01816F906A50C08C2FBF
:101FF0008F718695869590E2899F90011124C37018
:1020000081E090E002C0880F991FCA95E2F79C68B2
:1020100018C08C2F8F710E94F81095E0D695C79547
:102020009A95E1F7CF70D0E0DC2FCC27282F30E055
:1020300084FF05C084E0220F331F8A95E1F7D06941
:10204000CE01822B932B23C090E0D82FCC27CE013A
:10205000846F906A1CC08C2F8F710E94F8108F7152
:1020600090E0D82FCC27CE01906211C08D2F8F71B8
:102070000E94F810182FCE0199270E945C101F7142
:102080009062912B04C080E090E001C0CE01DF910E
:10209000CF911F910895753038F4643028F4462F9D
:1020A000672F0E943A03089580E090E008950E940F
:1020B0004B100E942E0F08958238910569F1B0F4FB
:1020C0008133910509F475C048F48932910509F40A
:1020D00067C08A32910509F471C00895853391056E
:1020E00009F459C089339105B9F00895833E9105EB
:1020F00089F138F4803E9105D1F0823E910529F1B5
:102100000895863E9105C9F1873E9105D9F1843E37
:10211000910509F06CC027C020918A0220FD57C0AC
:1021200021FD55C020918B0223FD5BC00895809155
:102130008A0280FD48C080918B0280FF48C0809158
:102140008A0284FD46C083EE51C080918A0282FFDC
:102150003CC0F5CF80918A0282FD37C080918B020E
:1021600080FD35C0ECCF80918B0281FF36C080911D
:102170008A0284FD2EC087EE39C080918A0283FFD7
:102180002AC0F5CF80918A0283FD25C080918B0201
:1021900081FD23C0ECCF80918A0285FD22C01FC043
:1021A00080918A0285FD1BC080918B0283FF19C03C
:1021B0000AC080918A0286FD16C017C080918A02EB
:1021C00086FD13C010C089E311C082EE0FC080EEFF
:1021D0000DC080E00BC086EE09C084EE07C085E329
:1021E00005C089E203C08AE201C081E390E008955E
:1021F00090918A0292FF10C041E0282F2471243070
:1022000009F040E031E0282F2871283009F030E053
:10221000431711F02CE0822793FF10C041E0282FD4
:102220002471243109F040E031E0282F2871283151
:1022300009F030E0431711F02CE0822730918B0237
:1022400030FF10C051E0282F2171213009F050E0FB
:1022500041E0282F2871283009F040E0541711F090
:1022600029E0822731FF10C041E0282F2171213160
:1022700009F040E031E0282F2871283109F030E0E2
:10228000431711F029E0822794FD877E089580E0AE
:1022900008950E94A70D08950E944C122FEF86E723
:1022A00091E0215080409040E1F700C000000E9482
:1022B0004C1280E00E94841180FF04C00E944911EA
:1022C0000E94C01B08950E944C1108950E94AE0DFB
:1022D000811102C00E944E0E0E94B90D80935F02D0
:1022E0000E94C30D90938B0280938A020E94631117
:1022F0000E94BE0D90E00E9403088091B60190916B
:10230000B7010E9421080895E82FF0E0EF56FD4F35
:1023100080810895089580EA8A95F1F7089500C0B4
:1023200008950E948B11089508950E9494110895B4
:102330000E94951108950E94941108950E949B1186
:102340000895F894E82FE295EF70F0E031A1282F7E
:102350002F7081E090E001C0880F2A95EAF7982F4E
:102360009095932391A392A1892B82A378940895A9
:102370000F931F93CF93DF93CDE9D1E089918F3FE6
:1023800011F00E94A11181E0C23AD807B9F7C9E95A
:10239000D1E00DE911E089918F3F11F00E94A11168
:1023A0000C171D07C1F7DF91CF911F910F91089571
:1023B000A0E0B0E0EEEDF1E10C9498228C01C62F84
:1023C000D0E0CE0183569E4F7C01FC0190819F3F5F
:1023D00009F447C0D62EF894E92FE295EF70F0E0AB
:1023E00081A19F7021E030E001C0220F9A95EAF7A9
:1023F000822B81A382A12095282322A378940E9476
:102400008F11E9E9F1E04DE951E031E0C12C219172
:102410002F3F89F0A22FA295AF70B0E090968C91DB
:1024200090E02F7002C0959587952A95E2F780FD80
:1024300002C0832F01C080E0C82A330F4E175F0708
:1024400031F7F70180818F3F11F00E94A11161E007
:10245000C11001C060E08D2D0E949111C00FD11FED
:10246000C882CDB7DEB7E8E00C94B4220E94B81160
:1024700085E0E1E9F2E0DF01982F1D929A95E9F7F6
:10248000ECE8F2E0DF011D928A95E9F785E00E9411
:1024900087120E949E110895A5E0B0E0E2E5F2E106
:1024A0000C949B228E010F5F1F4F85E0F801119263
:1024B0008A95E9F7F12C6F2DC8010E94D811F39489
:1024C000F5E0FF12F8CF45E050E0B8018CE892E06B
:1024D0000E94D92221E0009709F420E0892B41F0E5
:1024E00085E0F801ACE8B2E001900D928A95E1F741
:1024F00045E061E972E08CE892E00E948812182FB2
:102500000E949811812F2596E5E00C94B72208953A
:10251000EF92FF920F931F93CF93DF937C018B0178
:10252000C42F222351F081E0809362020E94731B2A
:10253000909361028093600204C0809162028111D5
:1025400002C080E01AC080916002909161020E94F6
:102550008B1B0597B0F3D0E0AE01B701C8010E9414
:10256000D922892B39F0AE01B701C8010E94E622B9
:1025700081E001C080E010926202CDB7DEB7E6E0F4
:102580000C94B6220E94421D0E94BB0E0E944F1D59
:1025900008950E94541D0E94C40E0E946E1D08954D
:1025A0000E940A1B0E94281D0E94A80E0E94C212AF
:1025B0000E94C9120E94B10EFBCF9093A301809399
:1025C000A2010895CF93DF9386319C4709F5EB0173
:1025D0000E947B0C9D81992371F08A7A91E009F425
:1025E00090E090936302811102C089E201C085E30B
:1025F0000E94501A09C080916302811102C089E2D1
:1026000001C085E30E94671A0E94280D80E001C086
:1026100081E0DF91CF910895CF93DF93FC01DB013F
:1026200015968C91882309F4DDC09F013057233221
:10263000310508F0D8C0EF010E94C30D90938B02C2
:1026400080938A02FE01E150F047E232F10520F466
:10265000E659FF4F0C94882280918A028160AAC0BB
:1026600080918B028860B2C080918A028260A2C091
:1026700080918A0220C080918A0288609BC08091EC
:102680008B021EC080918B028260A0C080918A0262
:10269000806190C080918A0280628CC080918A02A1
:1026A000806488C00E94B30780918A02806882C0DB
:1026B00080918A02886084607DC080918B028260F4
:1026C000816084C080918A028E7F74C080918B0269
:1026D000877F7CC080918A028D7F6CC080918A0246
:1026E00020C080918A02877F65C080918B021EC0C6
:1026F00080918B028D7F6AC080918A028F7E5AC042
:1027000080918A028F7D56C080918A028F7B52C051
:102710000E94B30780918A028F774CC080918A0211
:10272000877F8B7F47C080918B028D7F8E7F4EC0CD
:1027300080918A0282FB222720F991E0922790FB68
:1027400082F990FB83F936C080918B02982F909587
:1027500091708E7F892B90FB81F938C080918A021D
:1027600086FB222720F991E0922790FB86F922C070
:102770000E94B30780918A0287FB222720F991E00B
:10278000922790FB87F916C081E001C080E00E948B
:10279000510E1EC080918A0284FB222720F991E00D
:1027A000922790FB84F906C080918A02982F909519
:1027B00090FB80F980938A020BC080918B0283FB8F
:1027C000222720F991E0922790FB83F980938B02D6
:1027D00080918A0290918B020E94C80D0E94B307DB
:1027E00080E001C081E0DF91CF910895282F35EB83
:1027F0002303C001112497FF03C08058910902C030
:1028000080589F4F892F089580916A0280FF06C0EB
:102810006091190170E0660F771F26C081FF04C028
:102820006091190184E005C082FF07C06091190121
:1028300088E0689FB001112417C090916902992324
:10284000D1F060911801961788F72091190188E05E
:10285000289F90011124929FA001939F500D112455
:1028600070E0CA010E9474226038710540F461155D
:10287000710519F406C068E070E0862F08958FE7AF
:10288000089581E0089580916A0280FF08C06091F8
:10289000150170E0759567957595679521C081FF65
:1028A00006C06091150170E07595679519C082FFAB
:1028B00004C06091150170E010C0909168029923E6
:1028C00099F0609114019617A0F780911501899FE6
:1028D000C001112470E00E9474226038710540F438
:1028E0006115710519F406C061E070E0862F089546
:1028F0008FE7089581E0089590916D0291110CC0C9
:1029000090916E02911108C090917002911104C0D3
:1029100090916F02992331F098E09093690291E0D1
:10292000909368028D3C21F40E940414819504C0A8
:102930008E3C29F40E94041480936E0208958F3C0B
:1029400021F40E940414819504C0803D29F40E9462
:10295000041480936D020895893D19F40E94431474
:1029600005C08A3D31F40E944314819580936F0223
:1029700008958B3D21F40E944314819504C08C3D41
:1029800029F40E9443148093700208959FE2980FE7
:10299000983078F421E030E0A90102C0440F551FBF
:1029A0009A95E2F7CA0190916C02892B80936C0290
:1029B00008958D3D21F480916A0281600BC08E3DA7
:1029C00021F480916A02826005C08F3D29F48091D4
:1029D0006A02846080936A0208958D3C39F4909174
:1029E0006E0297FF35C010926E0259C08E3C29F4DA
:1029F00090916E021916BCF32BC090916D028F3C22
:102A000029F497FF25C010926D0249C0803D19F44A
:102A10001916CCF31DC090916F02893D29F4191647
:102A2000BCF410926F023BC08A3D19F497FF10C0AE
:102A3000F8CF8B3D39F49091700297FF09C0109246
:102A400070022DC08C3D21F4909170021916BCF3D8
:102A50009FE2980F983080F421E030E0A90102C095
:102A6000440F551F9A95E2F7CA01809590916C0228
:102A7000892380936C0213C08D3D21F480916A02FA
:102A80008E7F0BC08E3D21F480916A028D7F05C040
:102A90008F3D29F480916A028B7F80936A02809136
:102AA0006D02811106C080916E02811102C01092E8
:102AB000690280916F02811106C0809170028111BC
:102AC00002C01092680208950E94731B20916D024B
:102AD000211104C020916E02222321F090936702FD
:102AE0008093660220916F02211104C02091700230
:102AF000222321F090936502809364028BE692E09A
:102B00000E9451190895EBE6F2E086E0DF011D9284
:102B10008A95E9F7109269021092680210926A028F
:102B20000895FC01828181110DC0838181110AC049
:102B30008481811107C091E08581811101C090E0FD
:102B4000892F01C081E081700895A6E0B0E0EBEA32
:102B5000F5E10C949D2286E0EBE6F2E0DE011196B1
:102B600001900D928A95E1F710926D0210926E021B
:102B700010926F02109270028B81811104C08C81BF
:102B8000882309F456C080916602909167020E94E2
:102B90008B1BAC0190916902992339F020911A01A5
:102BA00030E02417350758F044C020911B018AE01B
:102BB000289F900111242417350718F03AC09F3F31
:102BC00019F09F5F909369021B81112361F00E94AD
:102BD0000414111614F09FEF01C091E0989F902DFE
:102BE000112490936D021C81112361F00E94041442
:102BF000111614F09FEF01C091E0989F902D1124C1
:102C000090936E0280916D02882399F010916E026C
:102C1000112379F00E94F613811101C081E08093A5
:102C20006D02812F0E94F613811101C081E0809313
:102C30006E028D81811104C08E81882309F456C0F3
:102C400080916402909165020E948B1BAC0190916F
:102C50006802992339F02091160130E024173507D6
:102C600058F044C0209117018AE0289F9001112458
:102C70002417350718F03AC09F3F19F09F5F9093D3
:102C800068021D81112361F00E944314111614F093
:102C90009FEF01C091E0989F902D112490936F02B7
:102CA0001E81112361F00E944314111614F09FEF4E
:102CB00001C091E0989F902D112490937002809113
:102CC0006F02882399F010917002112379F00E940D
:102CD000F613811101C081E080936F02812F0E9461
:102CE000F613811101C081E080937002BE016F5F15
:102CF0007F4F8BE692E00E94981A811105C08BE607
:102D000092E00E94911581110E94641586E0FE01F7
:102D10003196ABE6B2E001900D928A95E1F72696E6
:102D2000E3E00C94B922A0E0B0E0E9E9F6E10C940C
:102D30009922E82FF0E0E25DFC4FD490282F2695F1
:102D40002695269530E0F901E253FC4F04918770F7
:102D500010E0082E02C0159507950A94E2F701705D
:102D60001127F901E254FC4FE490F12C082E02C027
:102D7000F594E7940A94E2F791E0E922FF24F9013F
:102D8000E255FC4FC491D0E002C0D595C7958A9515
:102D9000E2F7C170DD270115110519F081EE0E94DF
:102DA000BA04E114F10419F086EE0E94BA048D2DE4
:102DB0000E944F05E114F10419F086EE0E9404050B
:102DC0000115110519F081EE0E940405CD2B19F0B3
:102DD0008CE20E944F05CDB7DEB7E7E00C94B52238
:102DE000EF92FF920F931F93CF93DF938C01F62EF8
:102DF0008AE0E82EF8018491882309F457C08130D5
:102E000009F042C0E8012196FE018491813031F43D
:102E10002196FE0184910E944F0539C0823039F419
:102E2000E8012296FE0184910E94BA0430C08330EA
:102E300039F4E8012296FE0184910E94040527C01E
:102E4000843029F5E8012296FE01249180E090E08B
:102E500030E0205331092A30310560F4E89EA001AA
:102E6000E99E500D1124C901840F951F2196FE0182
:102E70002491EECF009759F0EFE9FFE03197F1F799
:102E800000C000000197F6CF0E949316E8018E0162
:102E90000F5F1F4F8F2D882309F4ACCFEFE9FFE0C0
:102EA0003197F1F700C000008150F5CFCDB7DEB704
:102EB000E6E00C94B622A0E0B0E0E1E6F7E10C9485
:102EC00096227C015B01C42FD22FFC0185818823CF
:102ED000B1F0409373020E94731B9093720280932F
:102EE000710280E28C0F883008F052C0C77081E018
:102EF00001C0880FCA95EAF70E94590549C0809120
:102F00007302481335C080917102909172020E9441
:102F10008B1B6C01B701C5010E94B309C816D90605
:102F200038F510E21D0FCD17B9F080E28C0F883014
:102F300040F4C77081E001C0880FCA95EAF70E948B
:102F40006005183010F581E09D2F977001C0880F43
:102F50009A95EAF70E945905802F0E944F05183074
:102F6000B8F4D77081E001C0880FDA95EAF70AC09B
:102F700080E28C0F883060F4C77081E001C0880F58
:102F8000CA95EAF70E94600503C0802F0E944F0592
:102F9000CDB7DEB7EAE00C94B2220F93FC01E85102
:102FA000FC47E730F10590F5CB01E457FF4F0C9457
:102FB000882206E221EE41EE6AE17CE723C007E2C7
:102FC00025EE45EE6BE17CE71DC006E221EE40EE0A
:102FD00068E17CE717C007E225EE44EE69E17CE793
:102FE00011C006E221EE42EE6CE17CE70BC007E285
:102FF00025EE46EE6DE17CE705C008E221E045EEF6
:103000006EE17CE70E945B1780E008C0FB018581D0
:10301000882319F01092730201C081E00F91089586
:103020004115510511F0FA0109950895CF93DF93E9
:10303000EC014A855B856E857F850E9410188B8127
:103040000E94970C8C810E94840C0E94280D86E0BF
:10305000FE0111928A95E9F7DF91CF910895CF9300
:10306000DF93EC018D8181FD11C082608D838B81A6
:103070000E94910C8C810E947E0C0E94280D488534
:1030800059856E857F85CE010E94101810927702B7
:10309000109276028D8180FD03C0CE010E94161829
:1030A000DF91CF910895CF93FB01C581CC2319F116
:1030B000209176023091770221153105D9F0281739
:1030C0003907C1F0AC01C901992724E0880F991F85
:1030D0002A95E1F7FC01EB5FFE4F208124602083FD
:1030E00080509F4FFC01518340830E942F180E9403
:1030F0009E0C01C0C0E08C2FCF910895EF92FF92FB
:103100000F931F93CF93DF939C0137552F3F3105CA
:1031100011F008F059C0FB017C018C01112784E0FB
:10312000000F111F8A95E1F7E801C050DF4F95812C
:103130000B5F1E4FD8018C9190FB80F98C93858199
:10314000882349F10E94731B909375028093740247
:103150008A818F5F8A830E947B0C8B830E948E0CF6
:103160009B81892B8B830E94A10C8C834E815F8174
:103170006E857F85CE010E941018F801808181FD47
:1031800003C09E2D8F2D02C090E080E090937602C8
:103190008093770219C04C855D856E857F85CE0151
:1031A0000E941018D8018C9181FF0EC0CE010E94A0
:1031B00016188091760290917702E816F90621F4AC
:1031C000109277021092760281E0CDB7DEB7E6E08A
:1031D0000C94B622A7E0B0E0E0EFF8E10C949C225A
:1031E0008091760290917702892B61F1809174022F
:1031F000909175020E948B1B8C01BE016F5F7F4F07
:1032000087E0FB0111928A95E9F78091760290910F
:1032100077020E94B30980179107A0F4809176028B
:1032200090917702992724E0880F991F2A95E1F75A
:10323000FC01EB5FFE4F208122FD04C080509F4FB8
:103240000E942F182796E4E00C94B82290937D02F8
:1032500080937C020895E0917C02F0917D0230978A
:1032600029F00190F081E02D0995089580E00895FE
:10327000E0917C02F0917D02309721F00280F38191
:10328000E02D09950895E0917C02F0917D02309740
:1032900039F026E0DC012C930480F581E02D0995BE
:1032A0000895E0917C02F0917D02309739F022E0A0
:1032B000DC012C930680F781E02D09950895A3E0A9
:1032C000B0E0E5E6F9E10C949E2220917A0230917B
:1032D0007B0228173907A1F090937B0280937A0232
:1032E000E0917C02F0917D02309751F023E0298338
:1032F0009B838A830084F185E02DCE010196099598
:103300002396E2E00C94BA22A3E0B0E0EAE8F9E107
:103310000C949E2220917802309179022817390767
:10332000A1F09093790280937802E0917C02F09171
:103330007D02309751F024E029839B838A830084A7
:10334000F185E02DCE01019609952396E2E00C94DB
:10335000BA22E0911201F091130132968091260178
:10336000882359F080918A0287FF07C0E0911001FD
:10337000F091110132969EE101C096E080E09150FB
:1033800028F021912223D9F38F5FF9CF0895882364
:1033900099F190912601992309F190918A0297FF62
:1033A0001DC0982F9695969596959E3128F5E0919B
:1033B0001001F0911101E90FF11D2281422F50E01F
:1033C000877021E030E002C0220F331F8A95E2F7B8
:1033D0002423352381E0232B91F40EC02091120188
:1033E00030911301F9013296285F3F4F919189176F
:1033F00029F0E217F307D1F780E0089581E00895FE
:103400009C01FC0132969FEF80E04191461789F0C4
:103410009F3F19F4411101C0982F8F5F8630A9F7A3
:103420009F3F39F0F901E90FF11D97FDFA9562838D
:10343000089508959C012A5F3F4FFC014281461385
:1034400001C01282019682179307B9F70895262FBB
:103450002695269526952E3168F4FC01E20FF11D84
:10346000677021E030E001C0220F6A95EAF782819F
:10347000282B22830895262F2695269526952E31D2
:1034800070F4FC01E20FF11D677021E030E001C033
:10349000220F6A95EAF720958281282322830895D6
:1034A000682F80912601882359F080918A0287FF36
:1034B00007C080911001909111010E94271A089570
:1034C00080911201909113010E94001A0895682FB3
:1034D00080912601882359F080918A0287FF07C0D6
:1034E00080911001909111010E943B1A08958091E2
:1034F0001201909113010E941A1A089580912601D9
:10350000882359F080918A0287FF07C0E09110015B
:10351000F091110132968EE106C0E0911201F09116
:103520001301329686E0DF011D928A95E9F708952E
:10353000DC01FB0111969C9111978181981321C0A8
:1035400012968C911297882319F09281891319C0D1
:1035500013968C911397882319F09381891311C0C6
:1035600015968C911597882319F09581891309C0B8
:1035700014969C91992339F081E02481291304C089
:1035800002C081E001C080E08170089508950E942A
:10359000C61A089583E080937E020E94C71A089598
:1035A000811102C081E001C082E080937E020E940E
:1035B000C71A08950E94D01A089581E080937E0270
:1035C0000E94C71A08950E94DD1A089508950E9466
:1035D000E61A08950E94E71A08950E94E61A0895CF
:1035E0000E94E61A08950E94E61A0895CF930E9459
:1035F000F01A0E944C120E94ED1AC0E08C2F0E941B
:103600008411811104C0CF5FC530C1F701C081E0D2
:10361000CF91089585B7806885BF85B7806885BFDD
:1036200008951F920F920FB60F9211248F939F93BC
:10363000AF93BF9380917F02811113C08091960256
:1036400090919702A0919802B09199024196A11D84
:10365000B11D8093960290939702A0939802B09325
:103660009902BF91AF919F918F910F900FBE0F90D4
:103670001F90189580919E02843031F10E942B0496
:1036800010927F0220E488E190E00FB6F894A895AC
:10369000809360000FBE2093600083B7817F8460B9
:1036A00083BF83B7816083BF7894889583B78E7F0B
:1036B00083BF0FB6F894A8958091600088618093CD
:1036C0006000109260000FBE08950E94B3070E9430
:1036D0003004089582E084BD93E095BD9AEF97BDD4
:1036E00080936E0008952FB7F89480919602909180
:1036F0009702A0919802B09199022FBF08952FB719
:10370000F89460919602709197028091980290913E
:1037100099022FBF08959C014FB7F89480919602AB
:1037200090919702A0919802B09199024FBF821B8D
:10373000930B089578941F920F920FB60F92112455
:103740008F939F93AF93BF9380919602909197022E
:10375000A0919802B09199020196A11DB11D80938C
:10376000960290939702A0939802B0939902BF910A
:10377000AF919F918F910F900FBE0F901F90189552
:1037800087E797E790930108809300089AE088E123
:103790000FB6F894A895809360000FBE90936000D8
:1037A000FFCF9AE088E10FB6F894A8958093600067
:1037B0000FBE90936000FFCF8091880208959B0117
:1037C00090919E029430F1F48F708093E9008FEF16
:1037D0009091E800815095FD06C095ED9A95F1F71E
:1037E00000008111F5CF8091E80085FF0BC0BA0180
:1037F000C90140E050E00E94E61D8091E8008E770C
:103800008093E800089543E050E0BC0182E00E940C
:10381000DF1B089546E050E0BC0182E00E94DF1B00
:10382000089540E250E0BC0182E00E94DF1B089551
:10383000CF93DF93EC0148E050E0BC0181E00E94AF
:10384000DF1B88E0FE01A0E8B2E001900D928A95AE
:10385000E1F7DF91CF91089580919D02811109C018
:103860000E94711F0E94CE1F8091E20084608093AD
:10387000E200089510929D0208950E94E31A0895AF
:1038800060919A0281E0611101C080E00E94CA1A31
:10389000089590919E0281E0943009F080E060915B
:1038A0009A020E94D01A089542E061EC81E00E94E1
:1038B000EA1E42E261EC82E00E94EA1E90919E02C2
:1038C00081E0943009F080E060919A020E94DA1A57
:1038D00008958091A002833009F461C030F48130F2
:1038E00071F0823009F49BC008958A3009F487C0D2
:1038F0008B3009F46CC0893009F0A9C020C08091D8
:103900009F02813A09F0A3C08091E800877F8093ED
:10391000E8008091A3029091A402892B21F468E031
:1039200080E892E003C060E080E090E070E00E94F8
:103930002B1E8091E8008B778093E800089580919A
:103940009F02813209F083C08091A3029091A4026A
:10395000029708F07CC08091E800877F8093E800A0
:103960008091E80082FD05C080919E028111F8CF10
:103970006EC02091F3008091F20090E0922B0297AC
:1039800031F48091F100813011F0863021F4809182
:10399000F100809388028091E8008B7754C0809179
:1039A0009F02813A09F053C08091A3029091A40232
:1039B000892B09F04CC08091E800877F8093E80054
:1039C0008091E80080FFFCCF8091260137C0809174
:1039D0009F028132E1F58091A3029091A402892B8C
:1039E000B1F58091E800877F8093E8000E941F1F57
:1039F0008091A102809326010E94B30708958091CF
:103A00009F02813221F58091E800877F8093E80052
:103A10000E941F1F8091A2028093890208958091C5
:103A20009F02813AA1F48091E800877F8093E800AB
:103A30008091E80080FFFCCF809189028093F100A3
:103A40008091E8008E778093E8000E941F1F089500
:103A500084B7877F84BF0FB6F894A89580916000E3
:103A6000886180936000109260000FBE90E080E853
:103A70000FB6F89480936100909361000FBE0E948E
:103A8000DD1A08950E94711F0E94CE1FE2EEF0E041
:103A900080818460808378940E94592208958CE10B
:103AA00091E00E942619089580919E028530A9F424
:103AB00080919E02853079F40E943A1B80919C028D
:103AC0008823B1F30E94F61A882391F30E94D01D37
:103AD0000E94B307EDCF0E94651B089508959A01D7
:103AE0004091A5025091A6020E94771D0895492F8A
:103AF000552743305105C9F060F44130510581F03C
:103B00004230510509F044C08BE390E04AE054E0B4
:103B100043C041325105E1F04232510549F138C00C
:103B200082E190E045E454E037C099278130910567
:103B300049F028F0029761F5EEEDF3E005C0E6E00C
:103B4000F4E002C0EAEFF3E0849190E0AF0124C01A
:103B50006115710541F061307105D1F489E090E0A3
:103B600045E354E019C089E090E04CE154E014C012
:103B70006115710541F06130710551F486EB90E0FB
:103B800047E554E009C084E490E04DE055E004C00E
:103B900080E090E040E050E0F901518340830895D7
:103BA00080E189BD82E189BD09B400FEFDCF80912D
:103BB000D8008F7D8093D8008091E0008260809350
:103BC000E0008091E00081FDFCCF0895A0E0B0E02E
:103BD000ECEEFDE10C949822EC018B017A010E943D
:103BE0003E1F811133C0E114F10439F0F7018081E7
:103BF0009181081B190BC80FD91FC12CD12C01159D
:103C0000110519F18091E80085FD16C08091E8004A
:103C10008E778093E800E114F10449F0F701808188
:103C20009181C80ED91ED182C08285E00FC00E944A
:103C30003E1F882321F30AC089918093F10001502F
:103C40001109FFEFCF1ADF0ADACF80E0CDB7DEB778
:103C5000E8E00C94B4222091A5023091A602261728
:103C6000370748F06115710539F42091E8002E7787
:103C70002093E80001C0B901FC0120E06115710545
:103C800079F180919E028823F1F18530F1F18091E4
:103C9000E80083FD3CC08091E80082FD2EC0809149
:103CA000E80080FFEBCF2091F3008091F20090E0DC
:103CB000922B6115710551F08830910538F42191EE
:103CC0002093F100615071090196F3CF21E008972C
:103CD00009F020E08091E8008E778093E800CECF55
:103CE0002111CFCF0AC080919E02882361F08530D8
:103CF00061F08091E80083FD0AC08091E80082FFB6
:103D0000F2CF80E0089582E0089583E0089581E095
:103D100008952091A5023091A6022617370748F092
:103D20006115710539F42091E8002E772093E800A1
:103D300001C0B901FC0120E06115710591F180918C
:103D40009E02882309F440C0853009F43FC0809169
:103D5000E80083FD3DC08091E80082FD2FC0809186
:103D6000E80080FFE9CF2091F3008091F20090E01D
:103D7000922B6115710559F08830910540F424911A
:103D80002093F1003196615071090196F2CF21E044
:103D9000089709F020E08091E8008E778093E80092
:103DA000CBCF2111CCCF0AC080919E02882361F035
:103DB000853061F08091E80083FD0AC08091E800C1
:103DC00082FFF2CF80E0089582E0089583E00895B5
:103DD00081E00895982F973068F59093E90098173F
:103DE00039F07091EC002091ED005091F00003C08B
:103DF000242F762F50E021FD02C09F5FECCF309141
:103E0000EB003E7F3093EB003091ED003D7F30932F
:103E1000ED003091EB0031603093EB007093EC00DB
:103E20002093ED005093F0002091EE0027FDE5CFA8
:103E300080E008958F708093E90081E0089580917B
:103E40009F0287FF11C08091E80082FD05C080912C
:103E50009E028111F8CF11C08091E8008B770BC0D2
:103E600080919E02882349F08091E80080FFF8CF7E
:103E70008091E8008E778093E80008952091E40017
:103E80003091E50095E64091EC00842F817040FF71
:103E900023C08091E80080FD1DC080919E02882390
:103EA00099F0853099F08091EB0085FD11C040912B
:103EB000E4005091E5002417350729F3915011F0E3
:103EC0009A01E1CF84E0089582E0089583E00895A7
:103ED00081E0089580E008954091E80042FFDDCF41
:103EE00008950E94E01F0E94E81FE0EEF0E080814C
:103EF00081608083E8EDF0E080818F77808319BC5A
:103F0000A7EDB0E08C918E7F8C9380818F7E808333
:103F100010929D0208950F931F93CF93DF930E94F9
:103F2000E01F0E94E81FC8EDD0E088818F7788836A
:103F300088818068888388818F7D888319BC1092EE
:103F40009E0210929A0210929C0210929B0200EE26
:103F500010E0F80180818B7F808388818160888375
:103F600042E060E080E00E94EA1EE1EEF0E0808145
:103F70008E7F8083E2EEF0E08081816080838081AB
:103F800088608083F80180818E7F80838881806152
:103F90008883DF91CF911F910F910895E8EDF0E0B4
:103FA00080818F7E8083E7EDF0E080818160808377
:103FB00084E082BF81E080939D020E948B1F089560
:103FC000E8EDF0E080818E7F80831092E20008951A
:103FD0001092DA001092E10008951F920F920FB62E
:103FE0000F9211242F933F934F935F936F937F937F
:103FF0008F939F93AF93BF93EF93FF938091E100D3
:1040000082FF0BC08091E20082FF07C08091E10037
:104010008B7F8093E1000E9458228091DA0080FF1C
:104020001FC08091D80080FF1BC08091DA008E7F76
:104030008093DA008091D90080FF0DC080E189BDB6
:1040400082E189BD09B400FEFDCF81E080939E022C
:104050000E942C1C05C019BC10929E020E943A1CA2
:104060008091E10080FF19C08091E20080FF15C0BF
:104070008091E2008E7F8093E2008091E200806177
:104080008093E2008091D80080628093D80019BCB0
:1040900085E080939E020E94401C8091E10084FF95
:1040A00030C08091E20084FF2CC080E189BD82E1B4
:1040B00089BD09B400FEFDCF8091D8008F7D80932B
:1040C000D8008091E1008F7E8093E1008091E20032
:1040D0008F7E8093E2008091E20081608093E20015
:1040E00080919A02882311F084E007C08091E30058
:1040F00087FD02C081E001C083E080939E020E94A0
:10410000491C8091E10083FF29C08091E20083FF78
:1041100025C08091E100877F8093E10082E0809359
:104120009E0210929A028091E1008E7F8093E100BE
:104130008091E2008E7F8093E2008091E2008061B6
:104140008093E20042E060E080E00E94EA1E8091FD
:10415000F00088608093F0000E943D1CFF91EF9179
:10416000BF91AF919F918F917F916F915F914F918F
:104170003F912F910F900FBE0F901F9018951F9297
:104180000F920FB60F9211242F933F934F935F938B
:104190006F937F938F939F93AF93BF93CF93DF934F
:1041A000EF93FF93C091E900CF708091EC00D82F7E
:1041B000D17080FDD0E81092E9008091F000877FF7
:1041C0008093F00078940E9403211092E90080917E
:1041D000F00088608093F000CD2BCF70C093E90091
:1041E000FF91EF91DF91CF91BF91AF919F918F910F
:1041F0007F916F915F914F913F912F910F900FBEE3
:104200000F901F901895AAE2B0E0E9E0F1E20C945B
:104210009D22EFE9F2E08091F100819322E0E73AFC
:10422000F207C9F70E94691C8091E80083FF2EC144
:1042300080919F029091A002492F50E04A30510591
:1042400008F024C1FA01ED56FF4F0C948822803803
:1042500021F0823809F01AC108C080919B02909128
:104260009C02992389F082600FC08091A3028F7015
:10427000873008F00BC18093E9008091EB0085FB4B
:10428000882780F91092E9009091E800977F909339
:10429000E8008093F1001092F100D1C0282F2D7F0B
:1042A00009F0F4C0882319F0823061F0EFC08091EA
:1042B000A102813009F0EAC0933009F080E08093D8
:1042C0009C022EC08091A10281112AC08091A3027C
:1042D0008F702FEF280F263008F0D8C08093E900A8
:1042E0002091EB0020FF1CC0933021F48091EB0063
:1042F000806214C09091EB0090619093EB0021E0FC
:1043000030E0A90102C0440F551F8A95E2F740939F
:10431000EA001092EA008091EB0088608093EB0045
:104320001092E9008091E800877F8093E8000E9466
:104330001F1FACC08111AAC01091A1021F778091EC
:10434000E3008078812B8093E3008091E800877FF1
:104350008093E8000E941F1F8091E80080FFFCCF3F
:104360008091E30080688093E300111102C082E035
:1043700001C083E080939E0289C08058823008F09B
:1043800085C08091A1029091A2028C3D53E09507D7
:1043900079F583E08A838AE289834FB7F894DE0156
:1043A000139620E03EE051E2E32FF0E050935700F7
:1043B000E49120FF03C0E295EF703F5FEF708E2F16
:1043C00090E0EA3010F0C79601C0C0968D939D939F
:1043D0002F5F243149F74FBF8091E800877F80939A
:1043E000E8006AE270E0CE0101960E942B1E16C022
:1043F0006091A3027091A402AE014F5F5F4F0E94D3
:104400006F1DBC01892B09F441C09091E800977F92
:104410009093E80089819A810E94891E8091E8002A
:104420008B778093E80032C0803881F58091E80076
:10443000877F8093E80080919A028093F1008091B9
:10444000E8008E7772CF811121C08091A1029091F6
:10445000A20299270297D4F48091E800877F809385
:10446000E8008091A10280939A020E941F1F809110
:104470009A02811106C08091E30087FD02C081E0AD
:1044800001C084E080939E020E94541C8091E80049
:1044900083FF0AC08091E800877F8093E8008091C5
:1044A000EB0080628093EB00AA96E3E00C94B922C3
:1044B0000895CF9380919E028823A1F0C091E900D6
:1044C000CF709091EC00892F817090FD80E8C82B0F
:1044D0001092E9008091E80083FD0E940321CF70D3
:1044E000C093E900CF91089597FB072E16F400942E
:1044F00007D077FD09D00E94C52207FC05D03EF405
:10450000909581959F4F0895709561957F4F08957F
:10451000EE0FFF1F0590F491E02D09942F923F922A
:104520004F925F926F927F928F929F92AF92BF92C3
:10453000CF92DF92EF92FF920F931F93CF93DF936F
:10454000CDB7DEB7CA1BDB0B0FB6F894DEBF0FBECC
:10455000CDBF09942A88398848885F846E847D8419
:104560008C849B84AA84B984C884DF80EE80FD801B
:104570000C811B81AA81B981CE0FD11D0FB6F89491
:10458000DEBF0FBECDBFED010895AA1BBB1B51E1DD
:1045900007C0AA1FBB1FA617B70710F0A61BB70BB3
:1045A000881F991F5A95A9F780959095BC01CD0158
:1045B0000895FB01DC0104C08D910190801921F464
:1045C00041505040C8F7881B990B0895FB01DC014E
:1045D00002C001900D9241505040D8F70895F999CA
:1045E000FECF92BD81BDF89A992780B50895A8E1C4
:1045F000B0E042E050E00C943323DC01A40FB51F7F
:104600004150504048F0CB01840F951F2E910E94DD
:104610000E2341505040D0F70895262FF999FECF30
:1046200092BD81BDF89A019700B4021639F01FBA05
:1046300020BD0FB6F894FA9AF99A0FBE0895039622
:10464000272F0E940E230E940D23252F0E940E2348
:10465000242F0C940E230196272F0E940E230C94D6
:104660000D23DC01CB01FC01F999FECF06C0F2BDA0
:10467000E1BDF89A319600B40D9241505040B8F720
:064680000895F894FFCF3D
:104686000000000000000000C8020000000000005A
:1046960026024602280850011E0A1401DC1B181CBB
:1046A600111C0A1C031C01E200E900EA00B500B671
:1046B60000B700CD008301CC008A0192019401214C
:1046C60002230224022502260227022A02B300B48C
:1046D600006F0070009F01CB019F02A002818283C0
:1046E600E200E900EA00B500B600B700CD0083019C
:1046F600CC008A01920194012102230224022502A0
:10470600260227022A02B300B4006F0070009F0140
:10471600CB019F02A002818283C63435F491909426
:02472600669794
:00000001FF
