:100000000C9417020C9434020C9434020C943402B5
:100010000C9434020C9434020C9434020C94340288
:100020000C9434020C9434020C944D210C941F2235
:100030000C94EB1B0C9434020C9434020C94340298
:100040000C9434020C9434020C9434020C94340258
:100050000C9434020C94741C0C9434020C943402EE
:100060000C9434020C9434020C9434020C94340238
:100070000C9434020C9434020C9434020C94340228
:100080000C9434020C9434020C9434020C94340218
:100090000C9434020C9434020C9434020C94340208
:1000A0000C9434020C9434020C943402BA04BA0452
:1000B000E604E60447056505460646066A05D205D8
:1000C000E305E305BF133114C71391139513CB1345
:1000D0009813CE13D913A3132714A713DD13AB134F
:1000E000E1130B14AF13E5131514B513EB13F5134C
:1000F0009C13D2139F13D513BA13F01301142114B8
:1001000023148D13C3133A1435183B1829182F18CC
:10011000411847184D184A194D19841997199F19F4
:10012000AA19AD19AD19AD19F519F519B219B51905
:10013000BA19C719D419D719DB19E8198722AE22C1
:10014000A623AE22A623FA221D23A62374238323EB
:1001500053005400550056005F00600061005700D6
:100160005C005D005E00000059005A005B00580012
:1001700062000000630000000100010001000100B6
:100180004A0052004B000100500046004F000000A2
:100190004D0051004E000100490000004C000000DD
:1001A00001000100010001000000A90000000000A2
:1001B000AC00AE00AB0000000000AA000000000090
:1001C000A800000000000000000000000000000087
:1001D0002A2B2800000000000000000000000000A2
:1001E00000000029000000002C1E342021222434AD
:1001F0002627252E362D3738271E1F20212223247F
:1002000025263333362E37381F0405060708090A1A
:100210000B0C0D0E0F101112131415161718191AB6
:100220001B1C1D2F3130232D350405060708090A34
:100230000B0C0D0E0F101112131415161718191A96
:100240001B1C1D2F3130354C000000000000000049
:10025000000000000000000000000000000000009E
:100260000000000000000000000000007E0F00D42D
:10027000FFFFFFC7000000781A034200610073000F
:100280006900630020004E0075006D007000610081
:10029000640000000A0341006C0065007800000063
:1002A0000403090409025B00030100A0FA09040029
:1002B000000103010100092111010001224400078E
:1002C0000581030800010904010002030000000980
:1002D00021110100012222000705820320000107ED
:1002E00005030320000109040200010300000009C6
:1002F000211101000122B60007058403200001122C
:10030000010002000000084E42010000010102004D
:10031000010660FF0961A1010962150026FF009531
:1003200020750881020963150026FF0095207508D5
:100330009102C005010902A10185020901A1000580
:100340000919012908150025019508750181020583
:1003500001093009311581257F950275088106094B
:10036000381581257F950175088106050C0A38022C
:100370001581257F950175088106C0C0050109809A
:10038000A101850319012AB700150126B7009501BF
:1003900075108100C0050C0901A101850419012A0D
:1003A000A002150126A002950175108100C005016B
:1003B0000906A1018506050719E029E715002501B1
:1003C0009508750181020507190029EF150025011F
:1003D00095F075018102050819012905950575013A
:1003E0009102950175039101C005010906A101055E
:1003F0000719E029E7150025019508750181029587
:1004000001750881010507190029FF150026FF0065
:1004100095067508810005081901290515002501B3
:10042000950575019102950175039101C000112494
:100430001FBECFEFDAE0DEBFCDBF11E0A0E0B1E03C
:10044000E4E5F9E402C005900D92A43AB107D9F7AA
:1004500022E0A4EAB1E001C01D92A03AB207E1F7A0
:100460000E9498110C94A8240C9400008330C0F4CE
:100470006530B0F44430A0F4E62FF0E095E0899FB9
:10048000E00DF11D1124EE0FFF1FEE0FFF1FE40F13
:10049000F11DEE0FFF1FE05BFE4F859194910895D3
:1004A00081E090E0089581E0089581E008950E9440
:1004B000550208950E94570208950E94550208951A
:1004C00008950E9460020895A6E0B0E0EAE6F2E036
:1004D0000C94042449835A839E833091AB01898113
:1004E0009A81311115C03E81332359F0222349F0FE
:1004F0000E94E007182F682F89819A810E94BC070B
:1005000003C00E94CE07182F69817A81812F04C011
:100510000E94E00769817A810E94160F2696E3E027
:100520000C942024FC01262F40815181628173812B
:10053000848195810E9464020895CF93DF93EC013A
:1005400061E00E949202BE010E945A02DF91CF91A7
:100550000895CF93DF93EC0160E00E949202BE0108
:100560000E946102DF91CF91089581E008950E9479
:10057000B5020895CF93C82F0E94B7068C2F0E9412
:10058000B7022FEF84E39CE0215080409040E1F7D8
:1005900000C00000CF91089581E00E94BA020E943D
:1005A0009A1C089580E00E94BA020E94AB1C089534
:1005B0000F931F93CF93DF938C0161E00E9492020F
:1005C000EC01B8010E941719882309F450C0B80142
:1005D000CE010E945D02882309F449C0B801CE0112
:1005E0000E941D18882309F442C0B801CE010E9460
:1005F00069138823E1F1B801CE010E943F138823DB
:10060000B1F1B801CE010E946018882381F1F80190
:100610008581882341F1C3308CE7D807D1F040F4BD
:10062000C115FCE7DF0791F0C130DC47A1F01BC02A
:10063000CB35ECE7DE07A9F0CC35FCE7DF0771F03E
:10064000CA35DC4781F40E94670C0DC00E94CC02C1
:100650000EC00E946F0C0E94D20209C00E945D0C65
:1006600002C00E946B0CC8010E94530201C080E0CE
:10067000DF91CF911F910F9108950E94C41B0E949A
:10068000640308950E9468030E94CD1B0895089595
:1006900081E008950895CF93DF93D82F0E944803F7
:1006A000C82F882319F08D2F0E944A038C2FDF91C9
:1006B000CF9108950895CF93C82F0E9447038C2FA0
:1006C0000E944B03CF91089580E00E945B03089540
:1006D0000E94051A0E945B030895CF930E94051A99
:1006E000C82F8091A601C81779F0C093A6010E9477
:1006F000591C6093A7017093A8018093A90190935E
:10070000AA018C2F0E945B03CF910895ADE0B0E069
:10071000ECE8F3E00C940524488759876A877B87C7
:100720008C879D8791110E94690BCE01019627E06D
:10073000FC0111922A95E9F726E0FE013896DC01CA
:1007400001900D922A95E1F72D8121110AC029818E
:100750003A814B815C816D817E818F810E94B30AD9
:1007600004C00E949D028111F2CF2D96E2E00C940C
:100770002124FC012481213021F4808191810E9477
:100780000D080895662319F00E94D91402C00E9432
:100790004A150E94C1150895CF93882309F444C0D7
:1007A000C82F8CEF8C0F813A70F48C2F0E94A11A05
:1007B000882329F08C2F0E94411B0E94F00B8C2F64
:1007C0000E942A1B0CC080E28C0F883058F4C7703E
:1007D00081E001C0880FCA95EAF70E944C0B0E9485
:1007E000F00B22C0EBE5EC0FE33040F4F0E0E05B0F
:1007F000FE4F808190E00E94391A16C0E8E5EC0FA8
:10080000EB3150F4F0E0EE0FFF1FE65EFE4F80810B
:1008100091810E945E1A08C083E38C0F833120F41B
:1008200061E08C2F0E94C203CF910895882381F14B
:100830009CEF980F913A18F40E94411B0DC090E272
:10084000980F983060F4877091E001C0990F8A95F5
:10085000EAF7892F0E94520B0E94F00B08959BE546
:10086000980F933028F480E090E00E94391A0895A0
:1008700098E5980F9B3128F480E090E00E945E1A82
:10088000089593E3980F933118F460E00E94C20337
:1008900008951F93CF93DF93182FEB010E94CC0391
:1008A000209741F08FE99FE00197F1F700C0000029
:1008B0002197F6CF812F0E941604DF91CF911F91CF
:1008C0000895893319F060E070E002C060E570E0DF
:1008D0000E9449040895882321F00E944C0B0E9435
:1008E000F00B0895882321F00E94520B0E94F00B18
:1008F0000895A0E0B0E0EFE7F4E00C94FF237C0162
:10090000162FC72FFC01D581068102950F700E941A
:10091000420B8823F9F0DD23E9F08C2F807F8034AF
:1009200061F080E2810F8830A8F08C2F807E8032C9
:1009300021F4123078F0002369F08091840282FF64
:1009400009C082E00E94310C0E94420B91E0D82E37
:10095000D92601C0D12CCC2EC2948FE0C8228C2D78
:1009600090E08C30910508F091C1FC01EA5AFF4FEC
:100970000C94E8238C2F807FCF70882311F0C295D0
:10098000C07FDD2399F0CC2309F46CC180E2810F94
:10099000883010F0111104C08C2F0E944C0B03C042
:1009A0008C2F0E945C0B0E94F00B5CC1812F0E9477
:1009B0001604CC2309F46AC180E2810F883038F133
:1009C000112329F18C2F0E94620B24C08C2F807F71
:1009D000CF70803211F0C295C07F112319F0113011
:1009E00099F13CC08091840282FD17C0DD2349F05B
:1009F000CC2329F08C2F0E944C0B0E94F00B80E03E
:100A000032C180E00E941604CC2309F43FC18C2F30
:100A10000E94520B0E94F00B39C1DD2349F00023E4
:100A200009F1013009F032C18C2F0E94730B2EC1E5
:100A300001112CC18C2F0E9472048C2F0E947F0BFD
:100A40008C2F0E94040C22C1DD2321F0063008F017
:100A50001DC108C0053008F019C115C0DD2331F0F3
:100A6000011100C18C2F0E946B0410C1002359F0AA
:100A7000193309F008C1FFEF27EE83E0F150204061
:100A80008040E1F7FEC08C2F0E947204FFC08C2FC3
:100A900086958695837019F0813061F0F7C0DD236B
:100AA00021F0812F9C2F937002C080E090E00E9483
:100AB000391AF4C0DD2321F0812F9C2F937002C0DE
:100AC00080E090E00E945E1AE9C06D2F812F0E94A5
:100AD000C203E4C08C2F837079F5D111DBC0412FA4
:100AE000429546954770440F440F212F2F70042ED6
:100AF00001C0220F0A94EAF714FF08C08FE090E0CB
:100B000001C0880F4A95EAF7809501C080E0C6953C
:100B1000C695C370822BC23049F058F4C13019F029
:100B20000E940E07B7C00E940807B4C00E941407B5
:100B3000B1C00E940507AEC0DD2319F08C2F817073
:100B400001C08695882309F4A5C0412F429546959A
:100B50004770440F440F212F2F70042E01C0220F25
:100B60000A94EAF714FF08C08FE090E001C0880FF4
:100B70004A95EAF7809501C080E0C695C695C37096
:100B8000822BC23049F058F4C13019F00E945A0744
:100B900081C00E9454077EC00E9460077BC00E94F3
:100BA0001D0778C0CF70DD2339F08C2F0E942F07EE
:100BB000812F0E946B046EC0812F0E9472048C2FC3
:100BC0000E943B0767C0123F21F128F4103F41F01B
:100BD000113FC1F043C0133F19F1143F79F03EC0FB
:100BE000DD2341F0053008F051C08C2F8F710E9439
:100BF00048074CC0063008F049C0F7CF8091840206
:100C000082FD18C0DD2339F08C2F8F710E942F07D1
:100C10003DC0DD23C9F38C2F8F710E943B0736C086
:100C2000DD2329F08C2F8F710E9426072FC00E9490
:100C300022072CC0DD2349F0CF718C2F0E942F0793
:100C400063E08C2F0E94130C21C081E00E94310CC4
:100C50000230E0F082E00E94310C18C0DD2331F058
:100C6000002391F2812F0E94CC0310C0002399F23F
:100C7000193349F49FEFE7EEF3E09150E040F04084
:100C8000E1F700C00000812F0E94160488EF8C0D50
:100C9000843020F40E94051A0E945B03DD2089F055
:100CA0000E943E0B80FD0DC0F70115820E94380B9B
:100CB0000E942F07C7010E947E060E94380B0E94E7
:100CC0003B07CDB7DEB7E8E00C941B240F931F93CE
:100CD000CF93DF93EC01688179818D810E941808A0
:100CE0008C010E9466070E94F806B801CE010E949E
:100CF0007904DF91CF911F910F910895CF93DF93E6
:100D0000FC0124812223D1F0EC010E94D802811140
:100D10000FC00E94420B882389F08D81882371F0D7
:100D20008091840282FF0AC082E00E94310C06C0DA
:100D3000CE010E946606CE010E94A902DF91CF91EA
:100D4000089580E090E00E94391A80E090E00E94CF
:100D50005E1A0E94690B0E94F00B0E94E0150E942F
:100D6000C11508950E94581B0E94A10608950E9473
:100D7000590B0E94B206089592959F70963079F0B3
:100D800010F4925001C09A50923068F4803F69F09C
:100D900018F4883E40F409C0843F29F406C0883E18
:100DA00020F0813F11F080E0089581E00895FC017A
:100DB0002481222339F0808191810E940D080E94B4
:100DC000BC06089580E00895A6E0B0E0EAEEF6E003
:100DD0000C9405242696E2E00C942124A7E0B0E0D0
:100DE000E4EFF6E00C9405242796E2E00C9421242D
:100DF000089508950E94F90608950E94FA0608953C
:100E00000E94FD068093B60108950E940007089590
:100E10009091B601892B0E94000708959091B60128
:100E200089230E94000708959091B60189270E94A6
:100E3000000708950E94F90608950E941A078093FA
:100E4000B501089580E00E941D07089591E001C05A
:100E5000990F8A95EAF7892F0E941D07089521E0CE
:100E600030E001C0220F8A95EAF78091B501822B0C
:100E70000E941D07089521E030E001C0220F8A95ED
:100E8000EAF720958091B50182230E941D070895FD
:100E900021E030E001C0220F8A95EAF78091B50188
:100EA00082270E941D0708959091B501892B0E9409
:100EB0001D0708959091B50189230E941D0708958B
:100EC0009091B50189270E941D0708950895962FD6
:100ED0009770A1E001C0AA0F9A95EAF793E0769582
:100EE00067959A95E1F7FB01EE0FFF1F6E0F7F1FCD
:100EF000FA01E60FF71F40E050E0682F70E09081A4
:100F00009B01042E02C0369527950A94E2F72170C2
:100F1000219529272A23292721934F5F5F4F4330AB
:100F2000510569F708959B01782F777043E09695F6
:100F300087954A95E1F7FC01EE0FFF1F8E0F9F1F6B
:100F4000F901E80FF91F40E050E080E0219130E026
:100F5000072E02C0369527950A94E2F721703327B1
:100F6000042E01C0220F0A94EAF7822B4F5F5F4FD5
:100F70004330510559F70895282F953070F4843087
:100F800060F4862F622F70E024E0929F600D711D47
:100F900011244CEA51E00E9467070895953070F4DF
:100FA000843060F4292F90E06CEA71E034E0239FF4
:100FB000800D911D11240E949307089580E00895EB
:100FC000CF92DF92FF920F931F93CF93DF936C0129
:100FD0000091B5018091B601082BC3E0D0E010E08C
:100FE000C8010C2E02C0959587950A94E2F780FD02
:100FF00004C02197A8F7F12C07C0FC2EB6018C2F56
:101000000E94220F0197A9F38F2DDF91CF911F919D
:101010000F91FF90DF90CF900895CF93DF93EC0175
:101020000E94E007BE010E94220FDF91CF91089538
:101030001F93CF93DF93EB019091AB01992321F0A4
:10104000CB010E940D0813C0882349F0CB010E94F8
:10105000E007182F682FCE010E94BC0704C0CB0107
:101060000E94CE07182FBE01812F0E94220FDF9110
:10107000CF911F910895E1E0F0E0DF0102C0AA0FD7
:10108000BB1F6A95E2F7BD01DF0102C0AA0FBB1FBB
:101090004A95E2F7AD01462B01C0EE0F2A95EAF71B
:1010A000942F9823491302C08E2B0895E0958E2328
:1010B0000895242F462F682F8091B5010E943B0888
:1010C0000E941D0708951F93CF93DF93C091B7012E
:1010D00017E08091B801C817A1F0D0E01C9FF00183
:1010E0001D9FF00D1124E754FE4F20813181428174
:1010F00053816481758186810E94EE062196C770B6
:10110000E8CFDF91CF911F9108952091F1013091A7
:10111000F2014091F3015091F4016091F501709159
:10112000F6018091F7010E94EE060895CF93DF93B8
:101130008091F70182958F7009F04EC08091F60181
:10114000882309F449C08091B7014091B8015091BA
:10115000F2016091F101C091F301D091F40177E0C7
:101160008417D1F190E0789FF001799FF00D112460
:10117000DF01A754BE4F14962C911497222349F1F6
:1011800011962C911197251324C02C91261321C060
:1011900015962C91159721111CC012962D913C91FA
:1011A00013972C1B3D0B283C310598F48091F701D7
:1011B0008F7080618093F701E154FE4F80818F70C2
:1011C0008061808381EF91E00E947E060E94630827
:1011D00003C001968770C4CFDF91CF91089520910D
:1011E000B7019091B80157E02917A9F030E0529F5C
:1011F000F001539FF00D1124E754FE4F71817613D7
:1012000006C07081781303C07581741306C02F5F08
:101210003F4F2770E9CF80E0089581E00895A4E171
:10122000B0E0E5E1F9E00C94FB238C0186E0F801E5
:10123000DE011F9601900D928A95E1F7F8018481F5
:10124000E58091EFA92E91E0B92E9091F5019111D1
:1012500018C0882309F480C1EE20D9F1C8010E948A
:10126000D706F82E8823A9F187E0F801D50101906F
:101270000D928A95E1F7C5010E94B9030E94960874
:1012800098C0F801C080D18082809380F090F601F0
:101290002091F3013091F401A401421B530BFF2074
:1012A00009F406C1483C510508F0AFC0882309F491
:1012B00055C18091F701282F207F9091F2012223C0
:1012C00061F09D1509F462C0C8010E94D706811122
:1012D00073C0C8010E947E063FC19D1115C0909148
:1012E000F1019C1111C0E1100FC08F7080618093DB
:1012F000F7010E94850881EF91E00E947E068091AF
:10130000F701F801868326C1E1103AC040E06D2D57
:101310008C2D0E94EF0840E06D2D8C2D0E94EF086F
:10132000E82E811117C1CF86D88A8F8598890E94AF
:101330000D08292F22952F70243020F49F70223021
:1013400028F009C02A50223080F014C0992349F0B7
:10135000811107C013C0992321F0F8019681907F75
:1013600069F0805E883030F409C0803F38F0815FDA
:10137000833020F0C8010E947E06EF2CFE2CEEC0C8
:101380008091F70181608093F701E4C09091F101B1
:101390009C119ACFE11098CFF8018683C8010E9472
:1013A0007E0687E0F801A1EFB1E001900D928A95E9
:1013B000E1F70E948508D2C0EE2009F48ACF20917F
:1013C000F701822F82958F7090E002978CF08091C8
:1013D000F1019091F201998788879B868A86809196
:1013E000F5018C871D862E87CE0108960E947E0609
:1013F00087E0F801A1EFB1E001900D928A95E1F745
:101400000E9496080E948508A7C09091F701292F95
:10141000207FA1F4682D9A8A898AA6017A899E2D57
:101420000E94E40681EF91E00E947E0687E0F501CC
:1014300011928A95E9F70E9485088CC0882309F4E7
:101440008DC08091F2018D1111C08091F1018C113C
:101450000DC0E1100BC0F8019683C8010E947E0602
:1014600087E0F50111928A95E9F778C0C8010E94DA
:10147000D706882309F42DCFEE2009F42ACF209136
:10148000F701822F82958F7090E002970CF4B0CF15
:101490008091F1019091F2019A8389839C828B82E1
:1014A0008091F5018D831E822F83CE0101969ECF00
:1014B000483C510508F040C0882309F44DC0FE2C7B
:1014C000EE2009F406CF8091F2018D1127C08091A2
:1014D000F1018C1123C09091F70190FD16C0892F66
:1014E00082958F70282F30E02115310571F0F801B9
:1014F00096832F30310509F451CF8F5F982F929545
:10150000907F86818F70892B48CF87E0F801A1EF0B
:10151000B1E001900D928A95E1F720C0C8010E94C8
:10152000D706811165CF8091F70181608093F70123
:10153000C8010E947E0612C0682D9A8A898AA60177
:101540007A899E2D0E94E40687E0F50111928A9522
:10155000E9F72FCFF12C02C0FF24F3948F2D64966E
:10156000ECE00C941724AEE0B0E0E9EBFAE00C9468
:101570000424288739874A875B876C877D878E8715
:10158000CE0108960E940F09882361F06C856623BE
:10159000A9F1288539854A855B857D858E850E94E0
:1015A000EE062CC087E0FE013896DE011196019010
:1015B0000D928A95E1F76C85662301F12091B801BF
:1015C00030E0C9010196877099274091B70150E03A
:1015D00084179507E1F16D8397E0929FD001939F67
:1015E000B00D1124A754BE4FFE01319601900D920B
:1015F0009A95E1F78093B8010E94630817E0809103
:10160000B7019091B801891779F1189FC001112491
:1016100087549E4F0E940F09882331F1E091B70152
:101620001E9FF0011124E754FE4F20813181428139
:1016300053816481758186810E94EE068091B70195
:1016400090E00196877099278093B701D8CF0E94C8
:10165000B7061092B8011092B701E1EFF1E087E010
:10166000DF011D928A95E9F72E96E3E00C94202481
:101670008091200286958695869508958091200216
:101680008770089590912002977081E009F480E0BE
:10169000089580914C02089590914C02892B80937B
:1016A0004C020895809590914C02892380934C02BE
:1016B000089510924C02089590914B02892B8093CB
:1016C0004B020895809590914B02892380934B02A1
:1016D000089510924B02089508950E946C0B08958E
:1016E0000E946D0B089590912202292F28238217C2
:1016F00029F0982B909322020E94700B08959091EC
:101700002202292F282331F08095892380932202F9
:101710000E94700B089580912202882329F0109274
:10172000220280E00E94700B0895CF93C0914C027A
:1017300080914B02C82B80912202882331F0C82B64
:101740000E94831A81110E948B0B8C2FCF910895D8
:10175000CF93DF93C0910201D09103010E94950BBA
:101760008883C0910201D091030148E050E068E114
:1017700072E0CE010E944024892B59F088E0FE01DE
:10178000A8E1B2E001900D928A95E1F7CE010E94A6
:10179000121ADF91CF910895CF93DF93C09100018A
:1017A000D09101010E94950B8983C0910001D091D5
:1017B000010140E250E068EF71E0CE010E94402458
:1017C000892B59F080E2FE01A8EFB1E001900D9263
:1017D0008A95E1F7CE010E941D1ADF91CF910895FD
:1017E00080911901882339F08091830287FF03C01B
:1017F0000E94CC0B08950E94A80B08950E946C0BC8
:1018000008950E94FE0B089590912102292F28230C
:1018100031F080958923809321020E94010C089564
:101820000E946C0B08959091840292FF11C098E081
:10183000899F90011124262B209320020E942F07BC
:10184000809120028695869586950E94100C0895B9
:101850000E942F0708951092200280E00E94100C31
:101860000895909120028095892380932002282F4B
:10187000277069F4981759F09091840292FF07C07D
:101880008695869586950E943B070E942B0C0895AD
:101890009091840292FB222720F9281769F080FB9F
:1018A00092F99093840280918302909184020E9425
:1018B000910C82E00E94310C08958091840282FB99
:1018C000882780F991E089270E94480C089581E0DB
:1018D0000E94480C089580E00E94480C08956FEF24
:1018E0007FEF80E090E00E949224089580E090E0F5
:1018F0000E945E24863E9E4F19F40E94AB18089504
:1019000080E0089582E090E00E945624089583E0EC
:1019100090E00E945624089584E090E00E945E24A6
:101920000895BC0184E090E00E9492240895AB01E8
:10193000BC018FE090E00E9486240895AB01BC01B9
:1019400083E190E00E948624089560E070E0CB017E
:101950000E949E0C089560E070E0CB010E94970CFD
:101960000E94A50C0895A8E0B0E0E9EBFCE00C941F
:10197000052466EE7EEF80E090E00E94922460E015
:1019800082E090E00E94742481E08093B60161E0DF
:1019900083E090E00E94742460E074E184E090E0D1
:1019A0000E94922460E086E090E00E9474246FEF31
:1019B00087E090E00E94742440E050E0BA0188E0A3
:1019C00090E00E94862460E084E290E00E9474240B
:1019D00060E087E190E00E94742460E08CE090E099
:1019E0000E94742460E08DE090E00E9474241982CB
:1019F0001A821B821C821D821E821F82188648E06A
:101A000050E068E170E0CE0101960E94642440E05D
:101A100050E0BA0180E290E00E94862480E00E94BB
:101A2000C4180E94F9180E94AB0C2896E2E00C94AE
:101A300021240E94B30C0895682F8EE090E00E944C
:101A400074240895A6E0B0E0E8E2FDE00C940324DD
:101A50000E944D1C8C0180914D0290914E020817FE
:101A6000190781F019821A820E944D1C682F498142
:101A70005A81792F80E090E00E94860310934E02F5
:101A800000934D022696E4E00C941F240E94591CFA
:101A9000609358027093590280935A0290935B02AC
:101AA00060935402709355028093560290935702AC
:101AB000089581E0089581E008950E945B0D0895E6
:101AC00008950E94600D08950E94600D08950E947F
:101AD000640D08950E94600D08950E946A0D089596
:101AE0000E94600D089582E190E10E94A5110E947C
:101AF000700D0E946D0D08950E94610D0E94600D91
:101B000008950E9431100E945A0308950E94441CB7
:101B10000E9409190E94FE100E94810D0E94670D0B
:101B20000895A6E0B0E0E7E9FDE00C94FC230E94F4
:101B3000590D811103C00E94220D53C00E9414113F
:101B40008FE4E82E82E0F82E670100E0F6011191A3
:101B50006F01802F0E944C1081270F5F053019F014
:101B60008823A1F302C0882331F380915C0281FDB8
:101B70000E9452100E945D0DA82E10E099249394AB
:101B8000812F0E944C10B82EF701C080C82609F1A1
:101B900000E0DD24D3948C2D8D21A9F0AA2099F0AA
:101BA00009831A830E944D1C9C838B839D8291E044
:101BB0008B2D8D2109F490E049815A816B817C81C4
:101BC0008D810E9486030F5FDD0C043021F7F70141
:101BD000B0821F5FFFEFEF1AFF0A153089F60E94EF
:101BE000460D0E9402160E946D032696EBE00C94AF
:101BF00018241F93CF93DF930E94270FEC01C11588
:101C000080E5D807E8F5C11590E4D90708F0A8C029
:101C1000C03ED10530F5CD3CD10508F094C0C83A9E
:101C2000D10578F4C53AD10508F083C0C130D1059B
:101C300009F47CC008F4F2C0C430D10508F0F1C04A
:101C4000EDC0C33CD10508F0E9C0C85AD0E0CC0FC4
:101C5000DD1FCD5ADE4F0990D881C02DCE0194648E
:101C6000E1C0C11580E2D80708F0CBC0C11591E0F2
:101C7000D90708F06BC0C83ED10508F4D2C0CEC069
:101C8000C03682E5D80728F5C03492E5D90708F0B8
:101C900079C0C03282E5D80708F06CC0C11592E562
:101CA000D90708F481C04C2F4695469580E2489F9D
:101CB000A0011124C37021E030E0C90102C0880FE7
:101CC000991FCA95E2F7EA01C82BD92BCE019D686E
:101CD000A9C0C03A82E5D807B8F48C2F8F71C038FC
:101CE00092E5D90708F07BC08695869590E2899F9A
:101CF00090011124C37081E090E002C0880F991F09
:101D0000CA95E2F79A6868C0C03C82E5D80708F433
:101D10006DC0C03E92E5D90708F080C0CF71DD27C5
:101D2000DC2FCC27CE01806F906A7CC081E090E0F0
:101D300079C0C55AD0E0C757DE4F8881C82FD0E0A0
:101D4000CE0190646FC0CE0190656CC08D2F0E9453
:101D5000C30F182FCE0199270E94270F1F715CC057
:101D6000CE0199270E94270FCC27DF70D06A8C2BD9
:101D70009D2B58C0CF71D0E0DC2FCC27CE01816FD6
:101D8000906A50C08C2F8F718695869590E2899FBE
:101D900090011124C37081E090E002C0880F991F68
:101DA000CA95E2F79C6818C08C2F8F710E94C30FF0
:101DB00095E0D695C7959A95E1F7CF70D0E0DC2FE6
:101DC000CC27282F30E084FF05C084E0220F331F8A
:101DD0008A95E1F7D069CE01822B932B23C090E046
:101DE000D82FCC27CE01846F906A1CC08C2F8F71A6
:101DF0000E94C30F8F7190E0D82FCC27CE01906244
:101E000011C08D2F8F710E94C30F182FCE019927FB
:101E10000E94270F1F719062912B04C080E090E018
:101E200001C0CE01DF91CF911F910895753038F434
:101E3000643028F4462F672F0E945712089580E0DF
:101E400090E008950E94160F0E94F90D08958238BF
:101E5000910569F1B0F48133910509F475C048F436
:101E60008932910509F467C08A32910509F471C07D
:101E700008958533910509F459C089339105B9F066
:101E80000895833E910589F138F4803E9105D1F0A3
:101E9000823E910529F10895863E9105C9F1873E5C
:101EA0009105D9F1843E910509F06CC027C02091BD
:101EB000830220FD57C021FD55C02091840223FDDF
:101EC0005BC008958091830280FD48C080918402A8
:101ED00080FF48C08091830284FD46C083EE51C0DC
:101EE0008091830282FF3CC0F5CF8091830282FD06
:101EF00037C08091840280FD35C0ECCF8091840290
:101F000081FF36C08091830284FD2EC087EE39C0E8
:101F10008091830283FF2AC0F5CF8091830283FDE5
:101F200025C08091840281FD23C0ECCF8091830283
:101F300085FD22C01FC08091830285FD1BC080915A
:101F4000840283FF19C00AC08091830286FD16C0F7
:101F500017C08091830286FD13C010C089E311C0B1
:101F600082EE0FC080EE0DC080E00BC086EE09C08F
:101F700084EE07C085E305C089E203C08AE201C0A0
:101F800081E390E008959091830292FF10C041E0B8
:101F9000282F2471243009F040E031E0282F2871E7
:101FA000283009F030E0431711F02CE0822793FF2E
:101FB00010C041E0282F2471243109F040E031E0C5
:101FC000282F2871283109F030E0431711F02CE058
:101FD00082273091840230FF10C051E0282F2171F8
:101FE000213009F050E041E0282F2871283009F015
:101FF00040E0541711F029E0822731FF10C041E082
:10200000282F2171213109F040E031E0282F28717B
:10201000283109F030E0431711F029E0822794FDC0
:10202000877E089580E008950E946F0C08950E94B5
:1020300014112FEF86E791E0215080409040E1F7A6
:1020400000C000000E94141180E00E944C1080FF2C
:1020500004C00E9414100E949A1C08950E94171038
:1020600008950E94760C811102C00E94190D0E94F1
:10207000820C80935C020E948C0C9093840280936B
:1020800083020E942E100E94870C0E9405078091F7
:10209000B5010E941A070895E82FF0E0E657FD4FBA
:1020A00080810895089580EA8A95F1F7089500C027
:1020B00008950E945310089508950E945C10089599
:1020C0000E945D1008950E945C1008950E946310A4
:1020D0000895F894E82FE295EF70F0E031A1282FF1
:1020E0002F7081E090E001C0880F2A95EAF7982FC1
:1020F0009095932391A392A1892B82A3789408951C
:102100000F931F93CF93DF93C0E9D1E089918F3F65
:1021100011F00E94691081E0C539D807B9F7CCE801
:10212000D1E000E911E089918F3F11F00E94691020
:102130000C171D07C1F7DF91CF911F910F910895E3
:10214000A0E0B0E0E6EAF0E10C94FF238C01C62F9A
:10215000D0E0CE0180579E4F7C01FC0190819F3FD3
:1021600009F447C0D62EF894E92FE295EF70F0E01D
:1021700081A19F7021E030E001C0220F9A95EAF71B
:10218000822B81A382A12095282322A378940E94E8
:102190005710ECE8F1E040E951E031E0C12C219129
:1021A0002F3F89F0A22FA295AF70B0E090968C914E
:1021B00090E02F7002C0959587952A95E2F780FDF3
:1021C00002C0832F01C080E0C82A330F4E175F077B
:1021D00031F7F70180818F3F11F00E94691061E0B3
:1021E000C11001C060E08D2D0E945910C00FD11F99
:1021F000C882CDB7DEB7E8E00C941B240E948010A3
:1022000085E0EAE8F2E0DF01982F1D929A95E9F760
:10221000E5E8F2E0DF011D928A95E9F785E00E948A
:102220004F110E9466100895A5E0B0E0EAE1F1E1E7
:102230000C9402248E010F5F1F4F85E0F80111926C
:102240008A95E9F7F12C6F2DC8010E94A010F39434
:10225000F5E0FF12F8CF45E050E0B80185E892E0E4
:102260000E94402421E0009709F420E0892B41F0EE
:1022700085E0F801A5E8B2E001900D928A95E1F7BA
:1022800045E06AE872E085E892E00E945011182F5C
:102290000E946010812F2596E5E00C941E2408957D
:1022A000EF92FF920F931F93CF93DF937C018B01EB
:1022B000C42F222351F081E080935F020E944D1CC5
:1022C00090935E0280935D0204C080915F02811151
:1022D00002C080E01AC080915D0290915E020E946F
:1022E000651C0597B0F3D0E0AE01B701C8010E94AC
:1022F0004024892B39F0AE01B701C8010E944D245A
:1023000081E001C080E010925F02CDB7DEB7E6E069
:102310000C941D240E94311E0E94860D0E943E1EB8
:1023200008950E94431E0E94910D0E945D1E089513
:102330000E94E41B0E94171E0E94730D0E948A11C6
:102340000E9491110E947C0DFBCF9093A501809378
:10235000A401089584E0089550E0440F551F28E03B
:10236000629F400D511D11249A0168E2869F200D45
:10237000311D1124C901899608950F931F93CF939E
:10238000DF938430A0F4653090F4443080F40E94F0
:10239000AC118C010E94562490E0D82FCC27C801A4
:1023A00001960E9456249E01282BC90102C080E09C
:1023B00090E0DF91CF911F910F9108950F931F939C
:1023C000CF93DF93843080F4653070F4443060F450
:1023D000E9010E94AC118C016D2F0E9474246C2FB6
:1023E000C80101960E947424DF91CF911F910F9133
:1023F00008951F93CF93DF93D0E0C0E010E0412F0A
:102400006C2F8D2F0E9436029C01412F6C2F8D2F37
:102410000E94DE111F5F143091F7CF5FC53071F756
:10242000DF5FD43051F7DF91CF911F910895EF9284
:10243000FF920F931F93CF93DF93EA017A01E60E89
:10244000F71E8C01C8018996CE15DF0561F0003AB0
:10245000110520F40E945624888301C01882219619
:102460000F5F1F4FEFCFCDB7DEB7E6E00C941D2412
:10247000EF92FF920F931F93CF93DF93EA017A01BC
:10248000E60EF71E8C01C8018996CE15DF0551F0C6
:10249000003A110518F468810E94742421960F5F98
:1024A0001F4FF1CFCDB7DEB7E6E00C941D2484308A
:1024B00038F4653028F4443018F40E94BD110895B2
:1024C00080E090E0089580E1089587E393E0089527
:1024D000EF92FF920F931F93CF93DF93EA017A015C
:1024E000E60EF71E8C01C80187539F4FCE15DF05FE
:1024F00069F0073323E0120720F40E9456248883F2
:1025000001C0188221960F5F1F4FEDCFCDB7DEB708
:10251000E6E00C941D24EF92FF920F931F93CF934C
:10252000DF93EA017A01E60EF71E8C01C80187539A
:102530009F4FCE15DF0559F0073323E0120718F43B
:1025400068810E94742421960F5F1F4FEFCFCDB793
:10255000DEB7E6E00C941D24CF93DF93C9ECD0E006
:1025600060E0CE010E9474242196C11584E0D80752
:10257000B9F7DF91CF910895A8E0B0E0E2ECF2E185
:102580000C94FB23F82E8FE08F1508F474C08FEFA6
:1025900093E00E94562481116EC009EC10E0FF20E8
:1025A00071F0011594E0190709F465C0C8010E9493
:1025B0005624811101C0FA940F5F1F4FF0CFFE0126
:1025C00031966F0188E011928A95E9F77801FFEF63
:1025D000EF1AFF0AC8010E94562489831A828823B1
:1025E00009F449C0813009F040C0580182E0A80ECA
:1025F000B11CC7010E9456248A838823E1F19FEF12
:10260000980F933060F4780193E0E90EF11CC50156
:102610000E9456248B83882371F11C8226C084304B
:1026200019F54E01E3E08E0E911C02E010E07501F9
:10263000FFEFEF1AFF0AC5010E945624F4018193AF
:102640004F018823C1F08C3741F4E2E0F0E0EC0F59
:10265000FD1FE00FF11F108208C00F5F1F4F5701D1
:102660000730110521F707C0750160E0C6010E941F
:102670004D178701ABCF2896ECE00C941724CF932D
:10268000DF9386319C4709F5EB010E94490B9D8140
:10269000992371F08A7A91E009F490E090936002B6
:1026A000811102C089E201C085E30E942A1B09C092
:1026B00080916002811102C089E201C085E30E941D
:1026C000411B0E94F00B80E001C081E0DF91CF91BF
:1026D0000895CF93DF93FC01DB0115968C9188233D
:1026E00009F4DDC09F0130572332310508F0D8C00E
:1026F000EF010E948C0C9093840280938302FE0170
:10270000E150F047E232F10520F4EE59FF4F0C940E
:10271000E823809183028160AAC08091840288604E
:10272000B2C0809183028260A2C08091830220C0E7
:102730008091830288609BC0809184021EC080913A
:1027400084028260A0C080918302806190C08091E9
:10275000830280628CC080918302806488C00E9462
:10276000B70680918302806882C08091830288606E
:1027700084607DC0809184028260816084C0809189
:1027800083028E7F74C080918402877F7CC0809199
:1027900083028D7F6CC08091830220C08091830270
:1027A000877F65C0809184021EC0809184028D7FE6
:1027B0006AC0809183028F7E5AC0809183028F7D90
:1027C00056C0809183028F7B52C00E94B7068091D1
:1027D00083028F774CC080918302877F8B7F47C0B5
:1027E000809184028D7F8E7F4EC08091830282FB18
:1027F000222720F991E0922790FB82F990FB83F940
:1028000036C080918402982F909591708E7F892B8D
:1028100090FB81F938C08091830286FB222720F942
:1028200091E0922790FB86F922C00E94B706809122
:10283000830287FB222720F991E0922790FB87F9FA
:1028400016C081E001C080E00E941C0D1EC0809176
:10285000830284FB222720F991E0922790FB84F9E0
:1028600006C080918302982F909590FB80F9809309
:1028700083020BC08091840283FB222720F991E020
:10288000922790FB83F98093840280918302909138
:1028900084020E94910C0E94B70680E001C081E092
:1028A000DF91CF910895282F35EB2303C001112428
:1028B00097FF03C08058910902C080589F4F892F0D
:1028C00008958091670280FF06C06091090170E061
:1028D000660F771F26C081FF04C06091090184E064
:1028E00005C082FF07C06091090188E0689FB001C0
:1028F000112417C0909166029923D1F060910801CC
:10290000961788F72091090188E0289F90011124EB
:10291000929FA001939F500D112470E0CA010E9464
:10292000D4236038710540F46115710519F406C0AF
:1029300068E070E0862F08958FE7089581E008959C
:102940008091670280FF08C06091050170E0759575
:1029500067957595679521C081FF06C06091050157
:1029600070E07595679519C082FF04C060910501FC
:1029700070E010C090916502992399F06091040174
:102980009617A0F780910501899FC001112470E07E
:102990000E94D4236038710540F46115710519F463
:1029A00006C061E070E0862F08958FE7089581E00A
:1029B000089590916A0291110CC090916B0291114F
:1029C00008C090916D02911104C090916C029923FE
:1029D00031F098E09093660291E0909365028D3C0F
:1029E00021F40E946114819504C08E3C29F40E9458
:1029F000611480936B0208958F3C21F40E9461144E
:102A0000819504C0803D29F40E94611480936A027C
:102A10000895893D19F40E94A01405C08A3D31F43F
:102A20000E94A014819580936C0208958B3D21F43F
:102A30000E94A014819504C08C3D29F40E94A0142A
:102A400080936D0208959FE2980F983078F421E00A
:102A500030E0A90102C0440F551F9A95E2F7CA0160
:102A600090916902892B8093690208958D3D21F42C
:102A70008091670281600BC08E3D21F480916702D6
:102A8000826005C08F3D29F4809167028460809345
:102A9000670208958D3C39F490916B0297FF35C021
:102AA00010926B0259C08E3C29F490916B0219165A
:102AB000BCF32BC090916A028F3C29F497FF25C08C
:102AC00010926A0249C0803D19F41916CCF31DC05A
:102AD00090916C02893D29F41916BCF410926C0295
:102AE0003BC08A3D19F497FF10C0F8CF8B3D39F4F5
:102AF00090916D0297FF09C010926D022DC08C3D20
:102B000021F490916D021916BCF39FE2980F983052
:102B100080F421E030E0A90102C0440F551F9A95CE
:102B2000E2F7CA0180959091690289238093690236
:102B300013C08D3D21F4809167028E7F0BC08E3DC6
:102B400021F4809167028D7F05C08F3D29F480912B
:102B500067028B7F8093670280916A02811106C0B1
:102B600080916B02811102C01092660280916C020A
:102B7000811106C080916D02811102C01092650220
:102B800008950E944D1C20916A02211104C02091D9
:102B90006B02222321F090936402809363022091C0
:102BA0006C02211104C020916D02222321F0909328
:102BB00062028093610288E692E00E942B1A0895D7
:102BC000E8E6F2E086E0DF011D928A95E9F71092CF
:102BD000660210926502109267020895FC018281DC
:102BE00081110DC0838181110AC08481811107C0C8
:102BF00091E08581811101C090E0892F01C081E0C1
:102C000081700895A6E0B0E0E8E0F6E10C940424B9
:102C100086E0E8E6F2E0DE01119601900D928A95D9
:102C2000E1F710926A0210926B0210926C021092FD
:102C30006D028B81811104C08C81882309F456C0F8
:102C400080916302909164020E94651CAC01909196
:102C50006602992339F020910A0130E024173507E4
:102C600058F044C020910B018AE0289F9001112464
:102C70002417350718F03AC09F3F19F09F5F9093D3
:102C800066021B81112361F00E946114111614F079
:102C90009FEF01C091E0989F902D112490936A02BC
:102CA0001C81112361F00E946114111614F09FEF32
:102CB00001C091E0989F902D112490936B02809118
:102CC0006A02882399F010916B02112379F00E9417
:102CD0005314811101C081E080936A02812F0E9408
:102CE0005314811101C081E080936B028D818111A9
:102CF00004C08E81882309F456C0809161029091AE
:102D000062020E94651CAC0190916502992339F022
:102D10002091060130E02417350758F044C0209177
:102D200007018AE0289F900111242417350718F025
:102D30003AC09F3F19F09F5F909365021D81112358
:102D400061F00E94A014111614F09FEF01C091E0F1
:102D5000989F902D112490936C021E81112361F095
:102D60000E94A014111614F09FEF01C091E0989FEB
:102D7000902D112490936D0280916C02882399F01C
:102D800010916D02112379F00E945314811101C03A
:102D900081E080936C02812F0E945314811101C045
:102DA00081E080936D02BE016F5F7F4F88E692E005
:102DB0000E94721B811105C088E692E00E94EE1508
:102DC00081110E94C11586E0FE013196A8E6B2E0AD
:102DD00001900D928A95E1F72696E3E00C94202469
:102DE000A0E0B0E0E6EFF6E10C940024E82FF0E07C
:102DF000E853FE4FD490282F26952695269530E04F
:102E0000F901E859FD4F0491877010E0082E02C0C7
:102E1000159507950A94E2F701701127F901E85A10
:102E2000FD4FE490F12C082E02C0F594E7940A942B
:102E3000E2F791E0E922FF24F901E85BFD4FC4913C
:102E4000D0E002C0D595C7958A95E2F7C170DD271D
:102E50000115110519F081EE0E94CC03E114F10473
:102E600019F086EE0E94CC038D2D0E946104E114BE
:102E7000F10419F086EE0E9416040115110519F0EF
:102E800081EE0E941604CD2B19F08CE20E946104A1
:102E9000CDB7DEB7E7E00C941C24EF92FF920F93BE
:102EA0001F93CF93DF93EC01162F0AE088818823CC
:102EB00009F455C0813009F043C08981813041F463
:102EC0007E0182E0E80EF11C8A810E94610409C043
:102ED000823049F47E01E2E0EE0EF11C8A810E940C
:102EE000CC03E7012FC0833041F47E01F2E0EF0E06
:102EF000F11C8A810E941604F4CF843011F02196CF
:102F000021C02A81229680E090E030E020533109F0
:102F10002A30310558F4089FA001099F500D112453
:102F2000C901840F951F21962881EFCF009751F09A
:102F3000EFE9FFE03197F1F700C000000197F6CF0D
:102F40000E94F0162196812F882309F4AFCFEFE974
:102F5000FFE03197F1F700C000008150F5CFCDB709
:102F6000DEB7E6E00C941D240F931F93CF93DF93FD
:102F7000C42FD22FFC0185818823B1F040937002C9
:102F80000E944D1C90936F0280936E0280E28C0F22
:102F9000883008F04DC0C77081E001C0880FCA9525
:102FA000EAF70E946B0444C080917002481330C05D
:102FB00080916E0290916F020E94651C883C910581
:102FC00038F510E21D0FCD17B9F080E28C0F883074
:102FD00040F4C77081E001C0880FCA95EAF70E94EB
:102FE0007204183010F581E09D2F977001C0880F92
:102FF0009A95EAF70E946B04802F0E9461041830B2
:10300000B8F4D77081E001C0880FDA95EAF70AC0FA
:1030100080E28C0F883060F4C77081E001C0880FB7
:10302000CA95EAF70E94720403C0802F0E946104CF
:10303000DF91CF911F910F9108950F93FC01E851FB
:10304000FC47E730F10590F5CB01EC57FF4F0C94AE
:10305000E82306E221EE41EE6AE17CE723C007E2C5
:1030600025EE45EE6BE17CE71DC006E221EE40EE69
:1030700068E17CE717C007E225EE44EE69E17CE7F2
:1030800011C006E221EE42EE6CE17CE70BC007E2E4
:1030900025EE46EE6DE17CE705C008E221E045EE55
:1030A0006EE17CE70E94B41780E008C0FB018581D7
:1030B000882319F01092700201C081E00F910895E9
:1030C0001F93CF93DF9387372CE7920721F0883740
:1030D0009C4759F031C0FB01C581CC2319F00E94F7
:1030E000A21809C00E94A21818C0FB01C581CC23F8
:1030F00091F00E94A5180E942F070E94A818D82FAF
:103100000E94A518C82F0E94A2184D2F6C2F0E9454
:103110005908C0E012C00E94A5180E943B070E94F7
:10312000A818182F0E94A518D82F0E94A218412F66
:103130006D2F0E94590801C0C1E08C2FDF91CF9103
:103140001F91089580910E01089580910D010895B9
:1031500080910C01089585E290E00E94562485320A
:1031600081F486E290E00E945624823051F487E296
:1031700090E00E94562491E0853009F090E0892F7C
:1031800001C080E081700895CF93C82F811102C0E3
:103190006FEF01C065E285E290E00E947424C111E6
:1031A00002C06FEF01C062E086E290E00E947424EA
:1031B000C11102C06FEF01C065E087E290E00E949C
:1031C0007424CF910895089588E290E00E945624D7
:1031D000682F70E080E090E008950895CF93C62FA7
:1031E0000E94ED186C2F88E290E00E947424CF9129
:1031F000089580E00E94C41860E070E0CB010E9456
:10320000EE180E94F9110E94AC1281E00E94C418CD
:1032100008950E94E3180E94E4180E94ED180E948D
:10322000AB18811102C00E94F918089508959C01FD
:10323000FB018581882351F0A9015757403851057A
:1032400030F4C9010E94BC1280E0089581E0089525
:103250002FEFFC01208308950E942819089580E033
:103260000895A0E0B0E0E7E3F9E10C94FD23EC0160
:10327000F62E0E942F198111BEC0E8818E2F90E09A
:10328000FC013197E331F10508F0AFC0E557FF4F7E
:103290000C94E82319828CE06BC08981823089F01C
:1032A00030F4813009F0A1C00E94591C0CC0833059
:1032B00079F0843009F099C01A821B821C821D8229
:1032C00096C00E94E4189A838B837C836D838FC0A1
:1032D000EA806E0183E0C80ED11C00E010E0AE2C45
:1032E000B12CC501800F911F059708F080C08E2D6D
:1032F000800F0E944C10F60181936F010F5F1F4FEA
:103300000C31110571F773C08981823039F0853035
:1033100009F06BC08A810E94161969C06A817B819D
:103320008C819D810E94EE230E94EE1860C04B812B
:103330006A8189810E94BD119C838D8358C02C8134
:103340003D813227232732274B816A8189810E9460
:10335000DE114DC00E94F9114AC06F2DCE010E94AE
:103360002C1945C00E94631224C00E9465129983E3
:103370008A833DC06B8170E089819A81AE014C5F88
:103380005F4F9827892798270E94681230C06B8169
:1033900070E089819A81AE014C5F5F4F9827892741
:1033A00098270E948B1223C00E94AC1220C00E945A
:1033B000AA1189831CC06B8170E089819A81AE015A
:1033C0004C5F5F4F9827892798270E9417120FC0DC
:1033D0006B8170E089819A81AE014C5F5F4F9827C5
:1033E000892798270E94381202C08FEF88836F2D9B
:1033F000CE010E94061DCDB7DEB7EAE00C94192479
:1034000090937602809375020895E0917502F09191
:103410007602309729F00190F081E02D099508950A
:1034200080E00895E0917502F0917602309721F0E6
:103430000280F381E02D09950895E0917502F091E5
:103440007602309739F026E0DC012C930480F58178
:10345000E02D09950895E0917502F091760230977C
:1034600039F022E0DC012C930680F781E02D0995EC
:103470000895A3E0B0E0EFE3FAE10C940524209175
:1034800073023091740228173907A1F090937402E7
:1034900080937302E0917502F0917602309751F0BB
:1034A00023E029839B838A830084F185E02DCE016C
:1034B000019609952396E2E00C942124A3E0B0E064
:1034C000E4E6FAE10C940524209171023091720235
:1034D00028173907A1F09093720280937102E0914E
:1034E0007502F0917602309751F024E029839B8396
:1034F0008A830084F185E02DCE01019609952396FB
:10350000E2E00C942124E0910201F0910301329653
:1035100080911901882359F08091830287FF07C0A9
:10352000E0910001F091010132969EE101C096E028
:1035300080E0915028F021912223D9F38F5FF9CFB9
:103540000895882399F190911901992309F1909197
:10355000830297FF1DC0982F9695969596959E315C
:1035600028F5E0910001F0910101E90FF11D2281A0
:10357000422F50E0877021E030E002C0220F331F5D
:103580008A95E2F72423352381E0232B91F40EC0A2
:103590002091020130910301F9013296285F3F4FDB
:1035A0009191891729F0E217F307D1F780E0089588
:1035B00081E008959C01FC0132969FEF80E04191EB
:1035C000461789F09F3F19F4411101C0982F8F5F72
:1035D0008630A9F79F3F39F0F901E90FF11D97FDFA
:1035E000FA956283089508959C012A5F3F4FFC017C
:1035F0004281461301C01282019682179307B9F7E0
:103600000895262F2695269526952E3168F4FC01DF
:10361000E20FF11D677021E030E001C0220F6A95D2
:10362000EAF78281282B22830895262F2695269556
:1036300026952E3170F4FC01E20FF11D677021E038
:1036400030E001C0220F6A95EAF720958281282395
:1036500022830895682F80911901882359F0809161
:10366000830287FF07C080910001909101010E94B1
:10367000011B089580910201909103010E94DA1AC2
:103680000895682F80911901882359F08091830251
:1036900087FF07C080910001909101010E94151BD6
:1036A000089580910201909103010E94F41A0895F7
:1036B00080911901882359F08091830287FF07C008
:1036C000E0910001F091010132968EE106C0E09197
:1036D0000201F0910301329686E0DF011D928A9586
:1036E000E9F70895DC01FB0111969C911197818106
:1036F000981321C012968C911297882319F0928109
:10370000891319C013968C911397882319F093810C
:10371000891311C015968C911597882319F09581FE
:10372000891309C014969C91992339F081E0248172
:10373000291304C002C081E001C080E081700895B7
:1037400008950E94A01B089583E0809377020E9451
:10375000A11B0895811102C081E001C082E0809325
:1037600077020E94A11B08950E94AA1B089581E080
:10377000809377020E94A11B08950E94B71B0895B1
:1037800008950E94C01B08950E94C11B08950E94C5
:10379000C01B08950E94C01B08950E94C01B08957D
:1037A000CF930E94CA1B0E9414110E94C71BC0E045
:1037B0008C2F0E944C10811104C0CF5FC530C1F71F
:1037C00001C081E0CF91089585B7806885BF85B736
:1037D000806885BF08951F920F920FB60F92112433
:1037E0008F939F93AF93BF9380917802811113C001
:1037F00080918F0290919002A0919102B0919202DB
:103800004196A11DB11D80938F0290939002A093C9
:103810009102B0939202BF91AF919F918F910F90BF
:103820000FBE0F901F90189580919702843031F150
:103830000E943D031092780220E488E190E00FB6E8
:10384000F894A895809360000FBE2093600083B722
:10385000817F846083BF83B7816083BF78948895BC
:1038600083B78E7F83BF0FB6F894A89580916000D0
:10387000886180936000109260000FBE08950E94DE
:10388000B7060E944203089582E084BD93E095BD8F
:103890009AEF97BD80936E0008952FB7F8948091AA
:1038A0008F0290919002A0919102B09192022FBF4D
:1038B00008952FB7F89460918F02709190028091D3
:1038C0009102909192022FBF08959C014FB7F894F6
:1038D00080918F0290919002A0919102B0919202FA
:1038E0004FBF821B930B089578941F920F920FB6CF
:1038F0000F9211248F939F93AF93BF9380918F0268
:1039000090919002A0919102B09192020196A11D16
:10391000B11D80938F0290939002A0939102B09377
:103920009202BF91AF919F918F910F900FBE0F9018
:103930001F90189587E797E79093010880930008F8
:103940009AE088E10FB6F894A895809360000FBEC6
:1039500090936000FFCF9AE088E10FB6F894A895A5
:10396000809360000FBE90936000FFCF8091810232
:1039700008959B01909197029430F1F48F70809399
:10398000E9008FEF9091E800815095FD06C095ED1C
:103990009A95F1F700008111F5CF8091E80085FF3D
:1039A0000BC0BA01C90140E050E00E94011F8091A4
:1039B000E8008E778093E800089543E050E0BC0172
:1039C00084E00E94B91C089546E050E0BC0184E008
:1039D0000E94B91C089540E250E0BC0184E00E94BE
:1039E000B91C0895CF93DF93EC0148E050E0BC018F
:1039F00081E00E94B91C88E0FE01A9E7B2E00190D5
:103A00000D928A95E1F7DF91CF910895603231F4FC
:103A1000BC0140E250E082E00E94B91C0895809110
:103A20009602811109C00E94D1200E942E2180910E
:103A3000E20084608093E200089510929602089557
:103A40000E94BD1B08956091930281E0611101C045
:103A500080E00E94A41B08959091970281E0943029
:103A600009F080E0609193020E94AA1B089542E051
:103A700061EC81E00E944A2042E261EC84E00E9415
:103A80004A2042E261EC82E00E944A2042E260EC7D
:103A900083E00E944A209091970281E0943009F0DF
:103AA00080E0609193020E94B41B08958091990276
:103AB000833009F463C030F4813071F0823009F44E
:103AC0009DC008958A3009F489C08B3009F46EC016
:103AD000893009F0ABC020C080919802813A09F08A
:103AE000A5C08091E800877F8093E80080919C02C8
:103AF00090919D02892B21F468E089E792E003C050
:103B000060E080E090E070E00E948B1F8091E80010
:103B10008B778093E800089580919802813209F0B4
:103B200085C080919C0290919D02009719F00297A8
:103B300009F07CC08091E800877F8093E800809145
:103B4000E80082FD05C0809197028111F8CF6EC018
:103B50002091F3008091F20090E0922B029731F4D3
:103B60008091F100813011F0863021F48091F100D4
:103B7000809381028091E8008B7754C080919802F5
:103B8000813A09F053C080919C0290919D02892B4B
:103B900009F04CC08091E800877F8093E800809115
:103BA000E80080FFFCCF8091190137C08091980216
:103BB0008132E1F580919C0290919D02892BB1F5B3
:103BC0008091E800877F8093E8000E947F208091A9
:103BD0009A02809319010E94B70608958091980275
:103BE000813221F58091E800877F8093E8000E9470
:103BF0007F2080919B028093820208958091980299
:103C0000813AA1F48091E800877F8093E800809159
:103C1000E80080FFFCCF809182028093F1008091C8
:103C2000E8008E778093E8000E947F20089584B793
:103C3000877F84BF0FB6F894A89580916000886153
:103C400080936000109260000FBE90E080E80FB695
:103C5000F89480936100909361000FBE0E94B71B9F
:103C600008950E94D1200E942E21E2EEF0E0808192
:103C70008460808378940E94B92308958FE091E056
:103C80000E94001A0895809197028530A9F48091CE
:103C90009702853079F40E94141C80919502882344
:103CA000B1F30E94D01B882391F30E94EB1E0E9467
:103CB000B706EDCF0E943F1C0895A0E2B0E0E3E616
:103CC000FEE10C94052480919702843011F583E085
:103CD0008093E9008091E80082FF1BC08091E8009A
:103CE00085FF0AC040E050E060E270E0CE0101963E
:103CF0000E94461F91E001C090E08091E8008B7720
:103D00008093E800992329F060E2CE0101960E9499
:103D10003119A096E2E00C9421249A0140919E0270
:103D200050919F020E94951E0895492F55274330B8
:103D30005105C9F060F44130510581F04230510520
:103D400009F041C08BE590E044EA52E040C04132C6
:103D50005105E1F04232510531F135C082E190E088
:103D60004FEF52E034C099278130910549F028F097
:103D7000029749F5E8E7F2E005C0E0EAF2E002C0A8
:103D8000E4E9F2E0849190E0AF0121C06330710575
:103D9000D0F4660F771FFB01E256FE4F4081518140
:103DA00089E090E014C06330710568F4FB01EE0F08
:103DB000FF1FE856FE4F40815181FB01EB56FE4F3D
:103DC000808190E004C080E090E040E050E0F901A4
:103DD00051834083089580E189BD82E189BD09B4A2
:103DE00000FEFDCF8091D8008F7D8093D800809118
:103DF000E00082608093E0008091E00081FDFCCFD4
:103E00000895A0E0B0E0E7E0FFE10C94FF23EC01AF
:103E10008B017A010E949E20811133C0E114F104CC
:103E200039F0F70180819181081B190BC80FD91F48
:103E3000C12CD12C0115110519F18091E80085FDE7
:103E400016C08091E8008E778093E800E114F104B9
:103E500049F0F70180819181C80ED91ED182C082BC
:103E600085E00FC00E949E20882321F30AC089911B
:103E70008093F10001501109FFEFCF1ADF0ADACF6A
:103E800080E0CDB7DEB7E8E00C941B24A0E0B0E002
:103E9000ECE4FFE10C94FF23EC018B017A010E941A
:103EA0009E20811133C0E114F10439F0F7018081C3
:103EB0009181081B190BC80FD91FC12CD12C0115DA
:103EC000110519F18091E80085FD16C08091E80088
:103ED0008B778093E800E114F10449F0F7018081C9
:103EE0009181C80ED91ED182C08285E00FC00E9488
:103EF0009E20882321F30AC08091F100899301500C
:103F00001109FFEFCF1ADF0ADACF80E0CDB7DEB7B5
:103F1000E8E00C941B2420919E0230919F0226170A
:103F2000370748F06115710539F42091E8002E77C4
:103F30002093E80001C0B901FC0120E06115710582
:103F400079F1809197028823F1F18530F1F1809128
:103F5000E80083FD3CC08091E80082FD2EC0809186
:103F6000E80080FFEBCF2091F3008091F20090E019
:103F7000922B6115710551F08830910538F421912B
:103F80002093F100615071090196F3CF21E0089769
:103F900009F020E08091E8008E778093E800CECF92
:103FA0002111CFCF0AC080919702882361F085301C
:103FB00061F08091E80083FD0AC08091E80082FFF3
:103FC000F2CF80E0089582E0089583E0089581E0D3
:103FD000089520919E0230919F022617370748F0DE
:103FE0006115710539F42091E8002E772093E800DF
:103FF00001C0B901FC0120E06115710591F18091CA
:104000009702882309F440C0853009F43FC08091AD
:10401000E80083FD3DC08091E80082FD2FC08091C3
:10402000E80080FFE9CF2091F3008091F20090E05A
:10403000922B6115710559F08830910540F4249157
:104040002093F1003196615071090196F2CF21E081
:10405000089709F020E08091E8008E778093E800CF
:10406000CBCF2111CCCF0AC080919702882361F079
:10407000853061F08091E80083FD0AC08091E800FE
:1040800082FFF2CF80E0089582E0089583E00895F2
:1040900081E00895982F973068F59093E90098177C
:1040A00039F07091EC002091ED005091F00003C0C8
:1040B000242F762F50E021FD02C09F5FECCF30917E
:1040C000EB003E7F3093EB003091ED003D7F30936D
:1040D000ED003091EB0031603093EB007093EC0019
:1040E0002093ED005093F0002091EE0027FDE5CFE6
:1040F00080E008958F708093E90081E008958091B9
:10410000980287FF11C08091E80082FD05C0809170
:1041100097028111F8CF11C08091E8008B770BC016
:1041200080919702882349F08091E80080FFF8CFC2
:104130008091E8008E778093E80008952091E40054
:104140003091E50095E64091EC00842F817040FFAE
:1041500023C08091E80080FD1DC0809197028823D4
:1041600099F0853099F08091EB0085FD11C0409168
:10417000E4005091E5002417350729F3915011F020
:104180009A01E1CF84E0089582E0089583E00895E4
:1041900081E0089580E008954091E80042FFDDCF7E
:1041A00008950E9440210E944821E0EEF0E08081C5
:1041B00081608083E8EDF0E080818F77808319BC97
:1041C000A7EDB0E08C918E7F8C9380818F7E808371
:1041D0001092960208950F931F93CF93DF930E943E
:1041E00040210E944821C8EDD0E088818F778883E4
:1041F00088818068888388818F7D888319BC10922C
:10420000970210929302109295021092940200EE7F
:1042100010E0F80180818B7F8083888181608883B2
:1042200042E060E080E00E944A20E1EEF0E0808120
:104230008E7F8083E2EEF0E08081816080838081E8
:1042400088608083F80180818E7F8083888180618F
:104250008883DF91CF911F910F910895E8EDF0E0F1
:1042600080818F7E8083E7EDF0E0808181608083B4
:1042700084E082BF81E0809396020E94EB20089543
:10428000E8EDF0E080818E7F80831092E200089557
:104290001092DA001092E10008951F920F920FB66B
:1042A0000F9211242F933F934F935F936F937F93BC
:1042B0008F939F93AF93BF93EF93FF938091E10010
:1042C00082FF0BC08091E20082FF07C08091E10075
:1042D0008B7F8093E1000E94B8238091DA0080FFF9
:1042E0001FC08091D80080FF1BC08091DA008E7FB4
:1042F0008093DA008091D90080FF0DC080E189BDF4
:1043000082E189BD09B400FEFDCF81E08093970270
:104310000E940F1D05C019BC109297020E941D1D1E
:104320008091E10080FF19C08091E20080FF15C0FC
:104330008091E2008E7F8093E2008091E2008061B4
:104340008093E2008091D80080628093D80019BCED
:1043500085E0809397020E94231D8091E10084FFF5
:1043600030C08091E20084FF2CC080E189BD82E1F1
:1043700089BD09B400FEFDCF8091D8008F7D809368
:10438000D8008091E1008F7E8093E1008091E2006F
:104390008F7E8093E2008091E20081608093E20052
:1043A00080919302882311F084E007C08091E3009C
:1043B00087FD02C081E001C083E0809397020E94E4
:1043C0002C1D8091E10083FF29C08091E20083FFD2
:1043D00025C08091E100877F8093E10082E0809397
:1043E0009702109293028091E1008E7F8093E1000A
:1043F0008091E2008E7F8093E2008091E2008061F4
:104400008093E20042E060E080E00E944A208091D8
:10441000F00088608093F0000E94201DFF91EF91D2
:10442000BF91AF919F918F917F916F915F914F91CC
:104430003F912F910F900FBE0F901F9018951F92D4
:104440000F920FB60F9211242F933F934F935F93C8
:104450006F937F938F939F93AF93BF93CF93DF938C
:10446000EF93FF93C091E900CF708091EC00D82FBB
:10447000D17080FDD0E81092E9008091F000877F34
:104480008093F00078940E9463221092E90080915A
:10449000F00088608093F000CD2BCF70C093E900CE
:1044A000FF91EF91DF91CF91BF91AF919F918F914C
:1044B0007F916F915F914F913F912F910F900FBE20
:1044C0000F901F901895AAE2B0E0E9E6F2E20C9492
:1044D0000424E8E9F2E08091F100819322E0E03ADF
:1044E000F207C9F70E94561D8091E80083FF2EC194
:1044F0008091980290919902492F50E04A305105DD
:1045000008F024C1FA01E256FF4F0C94E8238038EA
:1045100021F0823809F01AC108C08091940290916C
:104520009502992389F082600FC080919C028F7060
:10453000873008F00BC18093E9008091EB0085FB88
:10454000882780F91092E9009091E800977F909376
:10455000E8008093F1001092F100D1C0282F2D7F48
:1045600009F0F4C0882319F0823061F0EFC0809127
:104570009A02813009F0EAC0933009F080E080931C
:1045800095022EC080919A0281112AC080919C02CE
:104590008F702FEF280F263008F0D8C08093E900E5
:1045A0002091EB0020FF1CC0933021F48091EB00A0
:1045B000806214C09091EB0090619093EB0021E039
:1045C00030E0A90102C0440F551F8A95E2F74093DD
:1045D000EA001092EA008091EB0088608093EB0083
:1045E0001092E9008091E800877F8093E8000E94A4
:1045F0007F20ACC08111AAC010919A021F778091D0
:10460000E3008078812B8093E3008091E800877F2E
:104610008093E8000E947F208091E80080FFFCCF1B
:104620008091E30080688093E300111102C082E072
:1046300001C083E08093970289C08058823008F0DF
:1046400085C080919A0290919B028C3D53E0950722
:1046500079F583E08A838AE289834FB7F894DE0193
:10466000139620E03EE051E2E32FF0E05093570034
:10467000E49120FF03C0E295EF703F5FEF708E2F53
:1046800090E0EA3010F0C79601C0C0968D939D93DC
:104690002F5F243149F74FBF8091E800877F8093D7
:1046A000E8006AE270E0CE0101960E948B1F16C0FE
:1046B00060919C0270919D02AE014F5F5F4F0E941E
:1046C0008D1EBC01892B09F441C09091E800977FB1
:1046D0009093E80089819A810E94E91F8091E80007
:1046E0008B778093E80032C0803881F58091E800B4
:1046F000877F8093E800809193028093F1008091FE
:10470000E8008E7772CF811121C080919A0290913A
:104710009B0299270297D4F48091E800877F8093C9
:10472000E80080919A02809393020E947F208091FA
:104730009302811106C08091E30087FD02C081E0F1
:1047400001C084E0809397020E94371D8091E800A9
:1047500083FF0AC08091E800877F8093E800809102
:10476000EB0080628093EB00AA96E3E00C94202497
:104770000895CF93809197028823A1F0C091E9001A
:10478000CF709091EC00892F817090FD80E8C82B4C
:104790001092E9008091E80083FD0E946322CF70AF
:1047A000C093E900CF91089597FB072E16F400946B
:1047B00007D077FD09D00E942C2407FC05D03EF4D9
:1047C000909581959F4F0895709561957F4F0895BD
:1047D000EE0FFF1F0590F491E02D099469279627AD
:1047E000692778278727782708952F923F924F923D
:1047F0005F926F927F928F929F92AF92BF92CF9271
:10480000DF92EF92FF920F931F93CF93DF93CDB779
:10481000DEB7CA1BDB0B0FB6F894DEBF0FBECDBFF1
:1048200009942A88398848885F846E847D848C84C2
:104830009B84AA84B984C884DF80EE80FD800C81CB
:104840001B81AA81B981CE0FD11D0FB6F894DEBFAE
:104850000FBECDBFED010895AA1BBB1B51E107C0E0
:10486000AA1FBB1FA617B70710F0A61BB70B881F00
:10487000991F5A95A9F780959095BC01CD0108958F
:10488000FB01DC0104C08D910190801921F441509D
:104890005040C8F7881B990B0895FB01DC0102C04A
:1048A00001900D9241505040D8F70895F999FECFEC
:1048B00092BD81BDF89A992780B50895A8E1B0E02E
:1048C00042E050E00C949A24DC01A40FB51F415043
:1048D000504048F0CB01840F951F2E910E94752403
:1048E00041505040D0F70895262FF999FECF92BD40
:1048F00081BDF89A019700B4021639F01FBA20BDA5
:104900000FB6F894FA9AF99A0FBE08950396272FD6
:104910000E9475240E947424252F0E947524242F40
:104920000C9475240196272F0E9475240C947424EE
:10493000DC01CB01FC01F999FECF06C0F2BDE1BD5F
:10494000F89A319600B40D9241505040B8F708954E
:04495000F894FFCF09
:1049540023024302280850011E0A1401030201B66F
:104964001CF21CEB1CE41CDD1C01E200E900EA0063
:10497400B500B600B700CD008301CC008A019201D6
:1049840094012102230224022502260227022A027C
:10499400B300B4006F0070009F01CB019F02A0021E
:1049A400818283E200E900EA00B500B600B700CDD9
:1049B400008301CC008A0192019401210223022484
:1049C400022502260227022A02B300B4006F0070F7
:1049D400009F01CB019F02A002818283C63435F47B
:1049E40091909466974422B6E90311033303B60207
:0449F400CF02EF02FD
:00000001FF
